:06000000BDEF51F0000C01
:08000800046ED8CF05F0E0CF33
:1000100006F00001E9CF0CF0EACF07F0E1CF08F0DD
:10002000E2CF09F0D9CF0AF0DACF0BF0F3CF12F01C
:10003000F4CF13F0FACF14F000C00EF001C00FF0AF
:1000400002C010F003C011F0F2AA2AEF00F0F2B4DF
:100050005AEF00F00EC000F00FC001F010C002F027
:1000600011C003F00CC0E9FF07C0EAFF078E08C00B
:10007000E1FF09C0E2FF0AC0D9FF0BC0DAFF12C0DE
:10008000F3FF13C0F4FF14C0FAFF045006C0E0FFF2
:1000900005C0D8FF1000F2CF0DF0F29EF76AB00F46
:1000A000F66E000EF7220900F5500DBEF28E12001A
:1000B000280C01064E2AD8B44F2A512A515009085B
:1000C00002E2502A516A0B0ED76EDB0ED66EF29406
:1000D0002AEF00F03C48544D4C3E3C424F44593EC0
:1000E0003C48313E343034204572726F723C2F48A8
:1000F000313E3C48523E3C503E46696C65204E6F56
:100100007420666F756E642E3C2F424F44593E3CFE
:100110002F48544D4C3E00003C48544D4C3E3C4210
:100120004F44593E3C48313E353030204572726F65
:10013000723C2F48313E3C48523E3C503E496E7422
:1001400065726E616C2053657276657220457272BD
:100150006F723C2F424F44593E3C2F48544D4C3E09
:100160000000485454502F312E3020254C5520008B
:100170004E6F7420666F756E64005365727665729B
:10018000204572726F7200000D0A436F6E74656EC7
:10019000742D547970653A200000746578742F6866
:1001A000746D6C000D0A0D0A00000A20202020202A
:1001B000202020202020202020202020202020005F
:1001C0000A44484350204E4F5420424F554E44005D
:1001D0000A4E4F2045544845524E4554204C494EF6
:1001E0004B000C526573657474696E672045455009
:1001F000524F4D000D0A0A0A526573657474696E98
:100200006720454550524F4D2E2E2E000D0A454574
:1002100050524F4D20436C65617265642E205265CB
:1002200073657474696E672E0D0A00000C454550A5
:10023000524F4D20436C65617265640050494345DF
:100240004E53000050494E5F00002573203C2D3E68
:1002500020004641494C205B25585D000D0A0A0AE2
:10026000454E4332384A363020546573743A200084
:100270004641494C00005041535300000D0A41547F
:10028000323532353620546573743A2000005041BF
:10029000535300004641494C2021212100000D0A02
:1002A000426F746820454E4332384A363020616EC2
:1002B000642041543235323536206661696C212123
:1002C00021000D0A0A426C696E6B696E67204C450D
:1002D00044732E2050726573732041342077686513
:1002E0006E204C45447320617265207665726966A4
:1002F00069656420776F726B696E672E0D0A000066
:100300000D0A5475726E2074686520504F54206336
:100310006F6D706C6574656C7920746F207468659E
:100320002072696768742E000D0A5475726E20740D
:10033000686520504F5420636F6D706C6574656CF8
:100340007920746F20746865206C6566742E0000D7
:100350000D0A504F5420546573743A205041535342
:100360000D0A00000D0A496E73657274207465737E
:100370007420686561646572206E6F772E2020504E
:10038000726573732054207768656E2072656164AE
:10039000792E00000D0A54657374696E6720492F29
:1003A0004F206865616465723A200D0A00000D0AED
:1003B000492F4F20686561646572204641494C2091
:1003C000212121005041535300000D0A0A52656D4E
:1003D0006F76652074657374206865616465722E3C
:1003E000202050726573732054207768656E2072E8
:1003F000656164792E000D0A0A52455345545449EB
:100400004E4720424F4152440D0A0A000D0A0A4D40
:10041000414320416464726573733A2025583A253C
:10042000583A25583A25583A25583A2558000D0A81
:100430004448435020456E61626C65643A20000078
:100440005452554500000D0A4448435020426F75F0
:100450006E643A20000054525545000046414C530A
:10046000450046414C5345000D0A49502041646403
:10047000726573733A2000000D0A476174657761F5
:10048000793A20000D0A4E65746D61736B3A200055
:1004900020204259544525553A2000000D0A0A4DA6
:1004A000414320414444524553533A000D0A202011
:1004B0004259544525553A2000000D0A0A55534526
:1004C00020444843503F2028592F4E293A2000000D
:1004D0000D0A0A495020414444524553533A0D0AEB
:1004E00000000D0A474154455741593A0D0A000092
:1004F0000D0A4E45544D41534B3A0D0A00000D0A6A
:100500000A536176656420746F20454550524F4D03
:100510002E2020526573657474696E672E2E2E002E
:100520000D0A0A442920446973706C61792053656F
:100530007474696E677300000D0A532920436F6E4F
:10054000666967757265205443502F4950202852C0
:100550006573657429000D0A5A2920436C65617220
:1005600020454550524F4D202821212129000D0AB8
:10057000454550524F4D20436C65617265640D0ACC
:1005800000003C68746D6C3E3C626F647920626769
:10059000636F6C6F723D234646464646462074653F
:1005A00078743D233030303030303E200A3C696D65
:1005B00067207372633D22687474703A2F2F7777C7
:1005C000772E636373696E666F2E636F6D2F696D2F
:1005D000616765732F4343536C6F676F74696E79FE
:1005E0002E676966223E200A3C62722F3E200A3C3A
:1005F00068313E43435320485454502F43474920C9
:100600004558414D504C453C2F68313E200A3C70C6
:100610003E3C623E3C693E25463C2F693E3C2F6293
:100620003E3C2F703E200A3C666F726D206D6574F3
:10063000686F643D706F73743E200A3C7461626C35
:100640006520626F726465723D303E200A3C7472B0
:100650003E3C74683E4C43443A3C2F74683E3C74C4
:100660006420636F6C7370616E3D343E3C696E70E4
:10067000757420747970653D227465787422206EDB
:10068000616D653D226C6364222073697A653D3239
:1006900030206D61786C656E6774683D3136207608
:1006A000616C75653D222534223E3C2F74643E3CCE
:1006B0002F74723E200A3C74723E3C74683E4C4576
:1006C00044313A3C2F74683E3C74643E3C696E7021
:1006D000757420747970653D22726164696F22209F
:1006E0006E616D653D226C656431222076616C75AA
:1006F000653D312025353E3C2F74643E3C74643E9C
:100700004F4E3C2F74643E200A2020203C74643EEF
:100710003C696E70757420747970653D22726164F5
:10072000696F22206E616D653D226C656431222007
:1007300076616C75653D302025363E3C2F74643EF5
:100740003C74643E4F46463C2F74643E3C2F7472AA
:100750003E200A3C74723E3C74683E4C4544323A3A
:100760003C2F74683E3C74643E3C696E7075742026
:10077000747970653D22726164696F22206E616DCB
:10078000653D226C656432222076616C75653D3171
:100790002025373E3C2F74643E3C74643E4F4E3CF3
:1007A0002F74643E200A2020203C74643E3C696E15
:1007B00070757420747970653D22726164696F226E
:1007C000206E616D653D226C656432222076616C1D
:1007D00075653D302025383E3C2F74643E3C746482
:1007E0003E4F46463C2F74643E3C2F74723E200AB6
:1007F0003C2F7461626C653E200A3C696E707574B2
:1008000020747970653D2268696464656E22206E8B
:10081000616D653D226D7367537461636B22207651
:10082000616C75653D224C43442F4C4544732063F5
:1008300068616E67656421223E200A3C62722F3E29
:100840003C696E70757420747970653D22737562B1
:100850006D6974223E3C2F666F726D3E200A3C70BB
:100860003E3C6120687265663D222F616E616C6F4F
:1008700067223E416E616C6F672052656164696EEC
:1008800067733C2F613E3C2F703E200A3C2F626F05
:1008900064793E3C2F68746D6C3E00003C68746D5A
:1008A0006C3E3C626F6479206267636F6C6F723D6F
:1008B0002366666666666620746578743D2330300C
:1008C000303030303E200A3C696D67207372633DE2
:1008D00022687474703A2F2F7777772E6363736969
:1008E0006E666F2E636F6D2F696D616765732F4341
:1008F00043536C6F676F74696E792E676966223E29
:10090000200A3C68313E5049434E455420414443FF
:100910002052454144494E47533C2F68313E200AFE
:100920003C703E25303C2F703E200A3C62722F3EC8
:100930002531200A3C703E25323C2F703E200A3C77
:1009400062722F3E2533200A3C703E25393C2F70C1
:100950003E200A3C703E3C6120687265663D222F55
:10096000223E4368616E6765204C43442F4C4544EA
:10097000733C2F613E3C2F703E200A3C2F626F6417
:10098000793E3C2F68746D6C3E00636865636B65EF
:10099000643D22636865636B656422003C423E41AE
:1009A0004E2555203D203C2F423E307825580000F2
:1009B0003C423E42544E31203D203C2F423E0000FE
:1009C000444F574E00000C434353205765627365F4
:1009D000727665720000202D2045585F53545F5792
:1009E000454253455256455200000D0A0D0A4343F5
:1009F000532065785F73745F77656273657276659F
:100A0000720D0A00030EEA6EA70EE96EEF500EE0BB
:100A10000C0E016E006A002EFED7012EFBD7F70EDA
:100A2000006E002EFED700D0EF2EF2D7000C03018F
:100A3000AE39F00B006E0F0E8C1400108C6E030E8E
:100A4000006E002EFED78D84060E006E002EFED79F
:100A500000008D940001000C0F0E9514F009956EA6
:100A60008D82030E006E002EFED78D84030E006E65
:100A7000002EFED783380F0B0301AE6F8D94030E4B
:100A8000006E002EFED78D84030E006E002EFED762
:100A900083380F0BAD6F8D940F0E9514956EAE3994
:100AA000006EF00E00160050AD11016E00015FEFF8
:100AB00005F08D90030E006E002EFED7CDD701C03D
:100AC000ADF3030101AE02D00001F8D78D90ABB1B8
:100AD0008D80030E006E002EFED78D92030E006EE9
:100AE000002EFED78D94AC39AD6F0F0EAD17ADC390
:100AF000AEF300019CDF0301AC510F0BAD6FAE6F85
:100B0000000195DF000C0F0E9514956E8D908D925F
:100B10008D94F80E96160F0E0301A76F000172DF79
:100B2000010E03017C6F7C5103080CE3030EAE6FD2
:100B300000017DDF050E0301A76F000163DF0301E4
:100B40007C2BF1D7020EAE6F000171DF050E0301A1
:100B5000A76F000157DF03017C6B7C51030813E38F
:100B6000036A7C51F2CF7DF3F29E00014BEC00F062
:100B700003017DBFF28E7D6FAB6BAC6F000199DF1F
:100B800003017C2BEAD70001FEEF0CF0030E931259
:100B90009450D70B1009946EF40E9516C69A200E39
:100BA000C66E400EC76E95928C8295908C80000C1C
:100BB0008B9A8B968A8603017C9182B87C81000196
:100BC00002EF0DF0050E03019A6F8A96010E9B6FDE
:100BD0009B5108080AE3D8909A3702E28B9A01D019
:100BE0008B8A8B868B969B2BF3D7010E9B6F9B5129
:100BF00008080AE38B8682B802D0D89001D0D8804A
:100C00009C378B969B2BF3D78A86000E9CA1010EF6
:100C1000016E0001000C030E0301986F93C397F35C
:100C20009751925D966F0001CDDF0152FDE08A96EB
:100C3000010E0301946F945118080CE3D890963775
:100C40009737983702E28B9A01D08B8A8B868B96E6
:100C5000942BF1D7010E946F945108080AE38B8608
:100C600082B802D0D89001D0D88095378B96942B3B
:100C7000F3D78A8695C301F00001000C0301A82D6B
:100C800001D003D0400EA96F01D0A96B010EA75D62
:100C9000A927A9518009AA6FAB6BAC6F000109DFCE
:100CA0007FEF06F00301A6510C0A000105E0060AD9
:100CB0000FE0020A15E01BD00301AB6B010EAC6F15
:100CC0000001F7DE020E0301A76F00019BDE17D0C3
:100CD000010E0301A76F020EA86F0001CFD70FD03E
:100CE0000301AB6B100EAC6F0001E3DE08D0010E08
:100CF0000301AB6FA6C3ACF30001DBDE00D0000C38
:100D00000900F55204E0F5CFA6F3CCDFF9D7000CCB
:100D10000900F55205E0F5509EA8FED7AD6EF8D754
:100D2000000C030193C397F39751925D966F0001F6
:100D300049DF0152FDE0060E0301956F8A96010E10
:100D4000996F995108080AE3D890953702E28B9A77
:100D500001D08B8A8B868B96992BF3D78A8694C386
:100D600095F3020E986F8A96010E996F995120089B
:100D70000DE3D890953796379737983702E28B9ADC
:100D800001D08B8A8B868B96992BF0D78A860001AF
:100D9000000C030180C303F07F517F2BD8B4802B5C
:100DA000836F03C084F381C385F303C093F3926F11
:100DB00081C394F30001B5DF82C383F380C393F34F
:100DC0007FC392F382C394F3ACDF000CE20EF66EA5
:100DD000010EF76E95DFF40EF66E010EF76E98DFDA
:100DE00003017E6B7D6B7E51020810E303E17D51B0
:100DF00027080CE37EC393F37DC392F3946B000149
:100E000090DF03017D2BD8B47E2BEDD7936BC00E02
:100E1000926F010E946F000184DF0301936BCD0E7E
:100E2000926F946B00017DDF0301936BCE0E926F86
:100E3000030E946F000175DF0301936BCF0E926F69
:100E4000040E946F00016DDF0301936BD00E926F5F
:100E5000050E946F000165DF0301936BD10E926F55
:100E6000060E946F00015DDF0301936BD20E926F4B
:100E7000070E946F000155DF0301806BD70E7F6F63
:100E8000826B190E816F000184DF020E0301806FF7
:100E90001D0E7F6F130E826F880E816F000179DF48
:100EA000020E0301806F1F0E7F6F130E826F880E7C
:100EB000816F00016EDF020E0301936F210E926FAE
:100EC000550E946F00012DDF0C0EF66E020EF76EBC
:100ED0001FDF2C0EF66E020EF76E12DF140E0301EA
:100EE0007F6FFA0EA76F00018DDD03017F2FF9D709
:100EF000FF000001000C020E0301936F210E926FA0
:100F0000000189DE0150550801E060DF04EF0DF0BB
:100F1000030189C303F08851882BD8B4892B906FC3
:100F200003C091F303C093F3926F000174DE01C01C
:100F30008CF3030189C303F08851882BD8B4892B23
:100F4000906F03C091F303C093F3926F000163DECF
:100F500001C08DF3030189C303F08851882BD8B4F5
:100F6000892B906F03C091F303C093F3926F00013C
:100F700052DE01C08EF389C393F388C392F34BDE34
:100F800001C08FF303018AC3E9FF8BC3EAFF8CC35F
:100F9000EFFF8DC3ECFF8EC3ECFF8FC3ECFF0001AE
:100FA000000C03017C510D0803E10201DD6B16D03A
:100FB0000201DD511C0812E3DD51DD2B036ABD0F78
:100FC000E96E020E0320EA6E7CC3EFFF036ADD5177
:100FD000BD0FE96E020E0320EA6EEF6A0001F7EF23
:100FE00007F00900F55204E0F5CF7CF3DAD7F9D722
:100FF000000C830ED56E0B0ED76EDB0ED66EF28A0A
:10100000C00EF212C5EF0CF0C95035C4C9FFC7308D
:10101000FEE3C9CF01F0000C95928C922AC42CF407
:101020002AC435F40001F0DF0401356B0001ECDF68
:1010300001C02BF495928C8204012BC401F00001B5
:10104000000C95928C92FF0E0401356F0001DCDFDD
:1010500095928C828CEF09F095928C92040130511C
:101060004009326F356F0001CFDF31C435F4CCDF7A
:1010700095928C82000C95928C9204012F51A009BC
:10108000316F356F0001C0DF30C435F4BDDF95929C
:101090008C82000C95928C92040132518009346F3D
:1010A000356F0001B1DF33C435F4AEDF95928C8229
:1010B000000C1F0E04012F6F030E306F0001DBDFE9
:1010C000040E0401306F2D0E2F6F010E2F25E96ED7
:1010D000000E3021EA6EEFCF31F41F0E326F31C4B3
:1010E00033F40001D7DF000C95928C9285C387F30F
:1010F00085C335F4000188DF0401356B000184DF0E
:101100000401356B000180DF01C086F395928C826B
:10111000030186C301F00001000C020E04012E6FD2
:10112000140E2D6F0001C5DF140E0401306F81C352
:1011300031F4000191DF030E0301856F820EE96E29
:1011400085C3EAFFEFCF86F3160E0401306F86C326
:1011500031F4000181DF030E0301856F820E846F7D
:10116000010E8425E96E000E8521EA6EEFCF86F32D
:10117000170E0401306F86C331F400016DDF030EDA
:1011800004012E6F0A0E2D6F000193DF0A0E03017A
:10119000856F0001A9DF01C084F3000E030101B0D7
:1011A000010E000AD8B402D00001F0D70001000CF3
:1011B000020E04012E6F140E2D6F00017ADF140E43
:1011C0000401306F82C331F4000146DF120E0401C6
:1011D000306F010E316F00013FDF030E04012E6FEF
:1011E0000A0E2D6F000165DF0A0E0301856F0001F5
:1011F0007BDF01C085F3000E030101B0010E000A80
:10120000D8B402D00001F0D7020E04012E6F140EE4
:101210002D6F00014EDF120E0401306F316B0001A3
:101220001BDF180E0301856F00015EDF01C083F331
:10123000190E0301856F000157DF01C084F303011C
:1012400083C301F084C302F00001000C1F0E0401EF
:101250002F6F0C0E306F00010EDF0301826B000157
:10126000A7DF02C080F301C07FF303017D510208B4
:1012700004E17D6B80B17D2B0AD080917DB18081AE
:10128000816B80C383F37FC382F3000146DF020ECC
:1012900004012E6F2D6F00010CDF020E0301856F1C
:1012A000000122DF01C07EF303017E917DB17E81CA
:1012B000020E0401306F7EC331F40001CDDE030164
:1012C0007D5302E0150E01D0120E816F040E040151
:1012D000306F81C331F40001BFDE1F0E0401326F95
:1012E000040E336F0001D6DE55EF0AF04FDC1D0E01
:1012F00004012A6F000190DE01C07CF303017CA78A
:1013000002D00001F4D77C51FF0A010BD8B402D0FF
:101310000001EDD7000195D6010E0301A76F000172
:1013200002EC05F04D6A5680536A526A080E0401B9
:10133000306F316B000190DE090E0401306F316BAC
:1013400000018ADE0C0E0401306FF70E316F0001D0
:1013500083DE0D0E0401306F1B0E316F00017CDE49
:101360000A0E0401306FF70E316F000175DE0B0EAF
:101370000401306F1B0E316F00016EDE040E04019C
:10138000306FF80E316F000167DE050E0401306F1B
:101390001B0E316F000160DE020E04012E6F2D6BFB
:1013A000000187DE0401306B0D0E316F000154DE49
:1013B000020E0401306F320E316F00014DDE030E5C
:1013C0000401306F400E316F000146DE090E04014A
:1013D000306F3F0E316F00013FDE060E0401306FAB
:1013E000120E316F000138DE070E0401306F0C0E53
:1013F000316F000131DE0A0E0401306FEE0E316FE5
:1014000000012ADE0B0E0401306F050E316F000162
:1014100023DE030E04012E6F040E2D6F000149DE42
:10142000040E0401306F1AC031F4000115DE050E00
:101430000401306F1BC031F400010EDE020E040106
:10144000306F1CC031F4000107DE030E0401306F61
:101450001DC031F4000100DE0401306B1EC031F408
:101460000001FADD010E0401306F1FC031F40001EC
:10147000F3DD120E04012A6F0001CEDD01C057F02A
:10148000100E0301816F010E836F826B000145DE38
:10149000140E0301816F040E836F720E826F0001C0
:1014A0003CDE03017D6B0001D1D61F0E0401326FBB
:1014B000040E336F0001EEDDC6EF0CF05692FF0E06
:1014C00001015B6F5C6F5D6F5E6F5F6F606F646B80
:1014D000636B626B616B0001C7EF0CF003018F510E
:1014E000160DF350916B906F0C0E9025016E000E4F
:1014F0009121036E0150590FE96E000E0320EA6E30
:10150000EC6AED52EF6A8F51160DF350916B906FAC
:10151000060E9027000E9123590E9025E96E000EBD
:101520009121EA6EEE52EE52EC6AED52EF6AED5204
:10153000EF6AED52EF6A8F51160DF350916B906F79
:10154000150E9027000E9123590E9025E96E000E7E
:101550009121EA6EEF900001000C03017C6B7C513D
:10156000010807E37CC38FF30001B8DF03017C2B84
:10157000F6D70001C8EF0CF082C34CF081C34BF0EA
:1015800080C34AF07FC349F0DBEF0BF00301876BA8
:10159000886B010E896FDA6AD96A030E8C6F7F0E31
:1015A0008B6F030EEA6E830EE96E8CC3E2FF8BC372
:1015B000E1FF89C38AF3D890E550EE02F350872308
:1015C000F45088238A2FF7D787C3DEFF88C387F3B9
:1015D000886BD8B0882B8B2BD8B48C2B892B895156
:1015E0000508DFE100012CEF0BF0016A026A006AD6
:1015F000036A0301855102E1845118E0100E866FE1
:10160000D89082378337003603368551035C02E178
:101610008451005C07E38451005ED8A00306855125
:10162000035ED88001360236862FEAD700014DEFDF
:101630000BF04CC082F34BC081F34AC080F349C029
:101640007FF3410E0301866FC60E856F4E0E846FC9
:101650006D0E836F00019AD7390E03010024496E85
:10166000300E01204A6E000E02204B6E000E032049
:101670004C6E4BC000F04CC001F0026A036A4CC0D3
:1016800081F34BC080F34CC083F34BC082F37F0ED9
:10169000856FFF0E846F0001A8D700C001F003C062
:1016A00002F0DCEF0BF003017C6B7C51040869E372
:1016B0007C51240DF350036A8C0F016E000E03223F
:1016C00001C07DF303C07EF37DC3E9FF7EC3EAFF63
:1016D0000A0EEF6E230E7D25E96E000E7E21EA6E66
:1016E000EF90230E7D25E96E000E7E21EA6EEF82DB
:1016F000230E7D25E96E000E7E21EA6EEF84230E17
:101700007D25E96E000E7E21EA6EEF98230E7D2581
:10171000E96E000E7E21EA6EEF960F0E7D25E96ED2
:10172000000E7E21EA6EEF3C01D016D00F0E7D2513
:10173000E96E000E7E21EA6EEFCF7FF37FC3CFF319
:10174000000102EC00F00F0E03017D25E96E000E92
:101750007E21EA6EFF0EEF6E210E7D25E96E000EF2
:101760007E21EA6EEC6AED521E0EEF6E100E7D25A4
:10177000E96E000E7E21EA6EEC6AED52EF6A7C2B78
:1017800094D7D65001014027D7504123CE5040274F
:10179000CF504123CC504027000E4123B250402768
:1017A000B35041230301826B816B41C180F340C17F
:1017B0007FF30001E1D63DD702C08BF001C08AF073
:1017C000040E8B278B5112080AE2FF0A03E18A51AB
:1017D000870805E2880E8A5F130E8B5BF3D78B5167
:1017E000030802E3040E8B27C9EF0CF085510808AB
:1017F00001E111D00101423D01D005D042C18FF37A
:1018000000016CDE0101FF0E426F0001856B0101DA
:10181000586B00018691000C0301816B8151040813
:1018200074E38151240DF350036A8C0F016E000E96
:10183000032201C082F303C083F382C3E9FF83C3A1
:10184000EAFFEF500A085FE182C3E9FF83C3EAFFC2
:10185000EF6A0B0E8225E96E000E8321EA6E80C3CB
:10186000ECFFED527FC3EFFF0D0E8225E96E000EF7
:101870008321EA6EEC6AED52EF6A070E8225E96E6B
:10188000000E8321EA6EEE52EE52EC6AED52EF6AE0
:10189000ED52EF6AED52EF6A230E8225E96E000EDB
:1018A0008321EA6EEF80230E8225E96E000E8321EC
:1018B000EA6EEF960F0E8225E96E000E8321EA6E26
:1018C000EF3C01D016D00F0E8225E96E000E832169
:1018D000EA6EEFCF84F384C3CFF3000102EC00F093
:1018E0000F0E03018225E96E000E8321EA6EFF0EC2
:1018F000EF6E230E8225E96E000E8321EA6EEF82E1
:1019000081C301F004D0812B89D7FE0E016E000146
:101910009DEF0CF003017C6B7C532EE1036A7C513C
:10192000650F016E010E032201C07DF303C07EF33B
:10193000806B500E7F6F00016FD77EC3EAFF7DC3BF
:10194000E9FF01C0EFFF036A03017C51650FE96EF7
:10195000010E0320EA6EEF50FE080CE0D8907C35B3
:10196000036A660FE96E010E0320EA6E010EEC6E4B
:10197000ED52EF6E7C2BD0D70001CBEF0CF00201C3
:10198000DE6B2C820001F9EF07F0B0D497D5E5D5D6
:101990008AD62CDFBFD76AEF0DF0D190FF0E926E82
:1019A000936E946E956E968096829684070EB46EB2
:1019B0009250926E210E006E002EFED7B450A19C64
:1019C000C150C00B0E09C16EC050C00B0709C06EDC
:1019D000C09EC280000E016EC250C30B0110C26EC9
:1019E000949C929A898A93988A88939A8A8A9288F0
:1019F0009396949A9488949683EF05F0C6EC05F03C
:101A0000D8EF05F07BEF07F00301896BC50E886FF7
:101A10008B6B160E8A6F000188EC07F00301896B4F
:101A2000C90E886F8B6B200E8A6F000188EC07F05F
:101A30000301896BC10E886F8B6B240E8A6F0001C6
:101A400088EC07F00301936BCD0E926F00010BEC55
:101A500006F001C01AF00301936BCE0E926F0001E5
:101A60000BEC06F001C01BF00301936BCF0E926FDD
:101A700000010BEC06F001C01CF00301936BD00ECB
:101A8000926F00010BEC06F001C01DF00301936B97
:101A9000D10E926F00010BEC06F001C01EF00301A5
:101AA000936BD20E926F00010BEC06F001C01FF099
:101AB0000301936BC00E926F00010BEC06F0015214
:101AC00002E1080E856F3C0EF66E020EF76EF1EC29
:101AD00007F055D740EF54F00900F5509EA8FED707
:101AE000AD6E03018D2F01D002D00001F5D70001AA
:101AF000000C03018EBF10D00F0E006E8D39001642
:101B00000A0E005C03E2300E002602D08E51002641
:101B100000509EA8FED7AD6E0F0E8D170A0E8D5D7C
:101B200002E2300E02D08E9F8E518D278D519EA8DD
:101B3000FED7AD6E0001000C0301C051016ABF5D0C
:101B400003E2BFC300F00CD0006A080EC16FBF37BC
:101B50000036C051005CD8B0006E0136C12FF7D7F7
:101B60000001000C015088C3BFF3640E0301C06F75
:101B70000001E2DF00C088F30150300E08E10301EC
:101B800089A30ED089B70CD089B9200E04D00301E7
:101B9000899789998981012601509EA8FED7AD6E4B
:101BA00088C3BFF30A0EC06F0001C6DF00C088F310
:101BB0000150300E08E1030189B70BD089A109D08B
:101BC00089B9200E0001012601509EA8FED7AD6EF6
:101BD0000301300E882788519EA8FED7AD6E000104
:101BE000000C03017EC3E9FF7FC3EAFFEFCF80F360
:101BF000010E7E25E96E000E7F21EA6EEFCF81F3A4
:101C0000020E7E25E96E000E7F21EA6EEFCF82F391
:101C1000030E7E25E96E000E7F21EA6EEFCF83F37F
:101C200080C388F31B0E896F00019CDF2E0E9EA8D7
:101C3000FED7AD6E81C388F31B0E0301896F0001CF
:101C400091DF2E0E9EA8FED7AD6E82C388F31B0EC9
:101C50000301896F000186DF2E0E9EA8FED7AD6EB0
:101C600083C388F31B0E0301896F00017BDF000C27
:101C700003017D810C0EF66E040EF76E100E8D6F53
:101C800000012ADF1AC08DF3370E03018E6F0001A9
:101C900030DF3A0E9EA8FED7AD6E1BC08DF3370E17
:101CA00003018E6F000125DF3A0E9EA8FED7AD6EB0
:101CB0001CC08DF3370E03018E6F00011ADF3A0E40
:101CC0009EA8FED7AD6E1DC08DF3370E03018E6F3B
:101CD00000010FDF3A0E9EA8FED7AD6E1EC08DF339
:101CE000370E03018E6F000104DF3A0E9EA8FED767
:101CF000AD6E1FC08DF3370E03018E6F0001F9DE4C
:101D00002E0EF66E040EF76E88EC06F00301936B50
:101D1000C00E926F00010BEC06F001521FE0400E66
:101D2000F66E040EF76E88EC06F0460EF66E040EA4
:101D3000F76E88EC06F086A107D0560EF66E040EFC
:101D4000F76E88EC06F009D05C0EF66E040EF76EA6
:101D500088EC06F003017D91000106D0620EF66E5C
:101D6000040EF76E88EC06F003017DA126D0680E04
:101D7000F66E040EF76E000188EC06F003017F6B2F
:101D8000160E7E6F00012DDF780EF66E040EF76ED4
:101D900088EC06F003017F6B240E7E6F000121DFCB
:101DA000840EF66E040EF76E88EC06F003017F6B6E
:101DB000200E7E6F000115DF03010001000C200ED4
:101DC000F66E050EF76E88EC06F0380EF66E050E10
:101DD000F76E88EC06F0560EF66E050EF76E88EC80
:101DE00006F0000CC60EF66E090EF76E80EC06F0DB
:101DF000D60EF66E090EF76EF1EC07F0EA0EF66EEF
:101E0000090EF76E88EC06F033DFD9DF42EF54F0AD
:101E1000000E0301905F7C0E915B9131036E903157
:101E2000026E033202320332023202C093F3905147
:101E3000070B946F93518E27000E8F238EC3E9FFFB
:101E40008FC3EAFFEFCF93F393C300F09451016E79
:101E500004E0D8900032012EFCD7959100B0958116
:101E600092530CE0010E006E9451016E04E0D89084
:101E70000036012EFCD7005093130CD0010E006EDB
:101E80009451016E04E0D8900036012EFCD700502A
:101E9000FF0A93178EC3E9FF8FC3EAFF93C3EFFFD7
:101EA000000E95B1010E016E0001000C020E03013F
:101EB000BD5F0CE3030EEA6EBD0EE96EEF5006E067
:101EC000020E006E002EFED7EF2EFAD70001000C96
:101ED000000E03018F5F7C0E905B9031036E8F319B
:101EE000026E033202320332023202C091F38F518A
:101EF000070B926F91518D27000E8E238DC3E9FF42
:101F00008EC3EAFFEFCF91F391C300F09251016EBF
:101F100004E0D8900032012EFCD7000E00B0010E74
:101F2000016E0001000C30C3EAFF2FC3E9FF03017B
:101F3000C2C3EFFFE92AD8B4EA2AEF6A2F2BD8B43C
:101F4000302B0001000C0900F55204E0F5CFC2F37C
:101F5000EADFF9D7000C000E03018D5F7C0E8E5B6B
:101F60008E31036E8D31026E033202320332023241
:101F700002C091F38D51070B926F90C330F38FC362
:101F80002FF3440EF66E020EF76E0001DCDF410EF9
:101F900003019127300E9227040E8F25E96E000E63
:101FA0009021EA6E91C3EFFF050E8F25E96E000EBA
:101FB0009021EA6E92C3EFFF060E8F25E96E000EA8
:101FC0009021EA6EEF6A0001000CEF5208E0EF503A
:101FD0009EA8FED7AD6EE92AD8B4EA2AF6D7000C3F
:101FE0000301836B0F0E8F6F890E8E6F80C391F389
:101FF0007FC390F3926B00010BDF03018C9501B05E
:102000008C850F0E8F6F890E8E6F82C391F381C303
:1020100090F3926B0001FCDE03018C9701B08C877A
:102020000F0E8F6F920E8E6F80C391F37FC390F36C
:10203000926B0001EDDE03018C9101B08C810F0EDB
:102040008F6F920E8E6F82C391F381C390F3010E56
:10205000926F0001DDDE03018C9301B08C83640E6E
:10206000BD6F000123DF0F0E03018E6F800E8D6F99
:1020700082C390F381C38FF300012ADF015202E093
:10208000030183810F0E03018F6F890E8E6F80C352
:1020900091F37FC390F3010E926F0001B9DE640EDD
:1020A0000301BD6F000102DF0F0E03018E6F800E72
:1020B0008D6F82C390F381C38FF3000109DF01525A
:1020C00002E1030183830F0E03018F6F890E8E6F70
:1020D00082C391F381C390F3926B000199DE0F0EDE
:1020E00003018F6F920E8E6F80C391F37FC390F3C5
:1020F000010E926F00018CDE0F0E03018F6F920EA6
:102100008E6F82C391F381C390F3926B000180DEE6
:10211000640E0301BD6F0001C9DE0F0E03018E6F57
:10212000800E8D6F80C390F37FC38FF30001D0DEEC
:10213000015202E0030183850F0E03018F6F890EA8
:102140008E6F82C391F381C390F3010E926F0001F1
:102150005FDE640E0301BD6F0001A8DE0F0E0301F8
:102160008E6F800E8D6F80C390F37FC38FF300015D
:10217000AFDE015202E103018387000E03018CB53B
:10218000010E8D6F0F0E8F6F890E8E6F80C391F3CE
:102190007FC390F38DC392F300013ADE000E03017A
:1021A0008CB7010E8D6F0F0E8F6F890E8E6F82C3ED
:1021B00091F381C390F38DC392F3000129DE000EE9
:1021C00003018CB1010E8D6F0F0E8F6F920E8E6F0B
:1021D00080C391F37FC390F38DC392F3000118DEA7
:1021E000000E03018CB3010E8D6F0F0E8F6F920ED8
:1021F0008E6F82C391F381C390F38DC392F300017C
:1022000007DE0301835356E080C38EF37FC38DF353
:10221000030E906F840E8F6F00019DDE030EEA6E39
:10222000840EE96ED2DE4C0EF66E020EF76E050ECF
:1022300003018D6F000150DC82C38EF381C38DF3E7
:10224000030E0301906F840E8F6F000184DE030E76
:10225000EA6E840EE96EB9DE200E9EA8FED7AD6E42
:102260000301835315E0520EF66E020EF76E060E52
:102270008D6F000131DC83C38DF3370E03018E6F48
:10228000000137DC5D0E9EA8FED7AD6E0AD00301BB
:102290004F0E9EA8FED7AD6E4B0E9EA8FED7AD6E1C
:1022A00000010D0E9EA8FED7AD6E0A0E9EA8FED7A9
:1022B000AD6E0301835302E1000E01D0010E016EE9
:1022C0000001000C03017D917D937D955C0EF66EFF
:1022D000020EF76E000188EC06F095928C92030EC8
:1022E00004012E6F040E2D6F000159EC08F0040E4E
:1022F0000401306F150E316F00012CEC08F0050E53
:102300000401306F260E316F00012CEC08F0060E30
:102310000401306F370E316F00012CEC08F0050E10
:102320000301856F000174EC08F001C07EF3030126
:102330000150260801E07D8195928C827DA109D013
:10234000700EF66E020EF76E000188EC06F008D0F3
:102350000301760EF66E020EF76E000188EC06F0B1
:10236000130E0301936F880E926F550E946F000148
:1023700091EC06F0130E0301936F890E926F660EB7
:10238000946F000191EC06F0130E0301936F8A0E17
:10239000926F770E946F000191EC06F07C0EF66E52
:1023A000020EF76E88EC06F0130E0301936F890E90
:1023B000926F00010BEC06F00150660807E18E0EEB
:1023C000F66E020EF76E88EC06F008D0940EF66EEC
:1023D000020EF76E88EC06F003017D8303017DA1F8
:1023E0000AD07DA308D09E0EF66E020EF76E000195
:1023F00088EC06F00301C20EF66E020EF76E0001C5
:1024000088EC06F0898A8A888A8A80A80AD0897A24
:102410008A788A7AFA0E0301A76F000102EC05F0B0
:10242000F4D7000EF66E030EF76E88EC06F0000E81
:10243000016EC250C30B0110C26E010E0301A76FE3
:10244000000102EC05F0C282C2B2FED7C450F70808
:1024500001E3F9D7280EF66E030EF76E88EC06F04E
:10246000C282C2B2FED7C450080801E2F9D7500EAA
:10247000F66E030EF76E88EC06F0C150C00B0F0924
:10248000C16EC69A010EC66E000EC76E640EF66E61
:10249000030EF76E88EC06F09EAAFED7AE5003013D
:1024A0007E6F600806E27E517A0803E37E51DF0BFF
:1024B00001D07E51540803E00001EED70301940ED1
:1024C000F66E030EF76E000188EC06F0000E0301B5
:1024D0007DB5010E7E6F7C0E806F0F0E7F6F7C0EC0
:1024E000826F0E0E816F00017BDD03017E510110B2
:1024F0007D95E8B07D85000E7DB5010E7E6F7C0E6A
:10250000806F0D0E7F6F7C0E826F0C0E816F00014D
:1025100067DD03017E5101107D95E8B07D85000ED9
:102520007DB5010E7E6F7C0E806F0B0E7F6F7C0E73
:10253000826F0A0E816F000153DD03017E5101108D
:102540007D95E8B07D85000E7DB5010E7E6F7C0E19
:10255000806F090E7F6F7C0E826F080E816F000105
:102560003FDD03017E5101107D95E8B07D85000EB1
:102570007DB5010E7E6F7C0E806F1F0E7F6F7C0E0F
:10258000826F1E0E816F00012BDD03017E51011051
:102590007D95E8B07D85000E7DB5010E7E6F7C0EC9
:1025A000806F1D0E7F6F7C0E826F1C0E816F00018D
:1025B00017DD03017E5101107D95E8B07D85000E89
:1025C0007DB5010E7E6F7C0E806F1B0E7F6F7C0EC3
:1025D000826F1A0E816F000103DD03017E5101102D
:1025E0007D95E8B07D85000E7DB5010E7E6F7C0E79
:1025F000806F190E7F6F7C0E826F180E816F000145
:10260000EFDC03017E5101107D95E8B07D85000E61
:102610007DB5010E7E6F7C0E806F150E7F6F7C0E78
:10262000826F140E816F0001DBDC03017E5101100B
:102630007D95E8B07D85000E7DB5010E7E6F7C0E28
:10264000806F130E7F6F7C0E826F120E816F000100
:10265000C7DC03017E5101107D95E8B07D85000E39
:102660007DB5010E7E6F7C0E806F110E7F6F7C0E2C
:10267000826F100E816F0001B3DC03017E510110E7
:102680007D95E8B07D85000E7DB5010E7E6F7C0ED8
:10269000806F050E7F6F7C0E826F040E816F0001CC
:1026A0009FDC03017E5101107D95E8B07D85000E11
:1026B0007DB5010E7E6F7C0E806F030E7F6F7C0EEA
:1026C000826F020E816F00018BDC03017E510110CD
:1026D0007D95E8B07D85000E7DB5010E7E6F7C0E88
:1026E000806F010E7F6F7C0E826F220E816F000162
:1026F00077DC03017E5101107D95E8B07D85000EE9
:102700007DB5010E7E6F7C0E806F210E7F6F7C0E7B
:10271000826F200E816F000163DC03017E51011086
:102720007D95E8B07D857DA509D0AE0EF66E030ED1
:10273000F76E000188EC06F008D00301C40EF66EB7
:10274000030EF76E000188EC06F0CA0EF66E030E5B
:10275000F76E88EC06F09EAAFED7AE5003017E6F9E
:10276000600806E27E517A0803E37E51DF0B01D058
:102770007E51540803E00001EED70301F60EF66E19
:10278000030EF76E000188EC06F0FF007EEF17F0F5
:102790000301BEBF12D00F0E006EBD3900160A0E27
:1027A000005C03E2300E002602D0BE51002600C0BD
:1027B000C2F3000193EC0FF003010F0EBD170A0ED8
:1027C000BD5D02E2300E02D0BE9FBE51BD27BDC32B
:1027D000C2F3000193EC0FF0000C9EA8FED7AD6E83
:1027E000000C0301946B930792C303F091C3E9FFBC
:1027F00092C3EAFFEFCF95F3955309E0955100019D
:10280000ECDF0301942B912BD8B4922BEDD79EAA29
:10281000FED7AECF95F39551080812E194530FE01F
:1028200094079151D8B49207910795510001D5DFD3
:10283000200ED3DF030195510001CFDF030119D032
:1028400095511F0816E295517E0813E39351945D4C
:1028500010E292C303F09151912BD8B4922BE96E00
:1028600003C0EAFF95C3EFFF942B95510001B5DF3C
:10287000030195510D08CBE191C3E9FF92C3EAFF33
:10288000EF6A0001000C0301D951DB19800BDD6FE9
:10289000D9AF05D0D81FD91FD82BD8B4D92BDBAFCF
:1028A00005D0DA1FDB1FDA2BD8B4DB2BD851DA03C3
:1028B000F3CF01F0F4CF00F0DB03F3500026D95141
:1028C000DA03F3500020026EDDAF05D0011E021EB8
:1028D000012AD8B4022A0001000C0301976B956B02
:1028E0000A0E966F946B936B9151921104E1000E56
:1028F000016E026EE8D09751972B036A9125E96E1D
:1029000092510320EA6EEFCF98F398512D080DE114
:10291000010E956F9751972B036A9125E96E92519D
:102920000320EA6EEFCF98F30DD098512B080AE1FF
:102930009751972B036A9125E96E92510320EA6E15
:10294000EFCF98F398512F08D8B0AFD098513908ED
:10295000D8A0ABD09851300821E1036A9751912556
:10296000E96E92510320EA6EEF5078080AE0036A9C
:1029700097519125E96E92510320EA6EEF50580865
:102980000DE1100E966F972B9751972B036A9125A7
:10299000E96E92510320EA6EEFCF98F396510A0840
:1029A00023E198512F081FE2985139081CE3D96B95
:1029B0000A0ED86F94C3DBF393C3DAF3000163DF2D
:1029C000300E0301985D0124936F000E0220946F76
:1029D0009751972B036A9125E96E92510320EA6E75
:1029E000EFCF98F3DED761D0965110085EE1985191
:1029F000600806E298517A0803E39851DF0B01D092
:102A00009851986F98512F0803E29851390806E2BF
:102A1000985140084AE29851460847E398512F08D8
:102A200019E29851390816E39335996F94359A6FE6
:102A300099379A3799379A3799379A37F00E991705
:102A4000300E985D9925016E000E9A2101C093F316
:102A5000946F16D09335996F94359A6F99379A374A
:102A600099379A3799379A37F00E9917410E985D32
:102A70000A0F9925016E000E9A2101C093F3946FFD
:102A80009751972B036A9125E96E92510320EA6EC4
:102A9000EF50986F600806E298517A0803E3985166
:102AA000DF0B01D09851986FADD796510A0807E116
:102AB000952D05D0931F941F932BD8B4942B93C3BB
:102AC00001F094C302F00001000C300E0301836F8B
:102AD000780E846F030E306F850E2F6F82C3BDF3A7
:102AE000370EBE6F000154DE030E0301926F850E98
:102AF000916F030E936F000174DE030E0301926F5A
:102B0000830E916F0001E9DE01C088F3030188C3E1
:102B100001F00001D6EF16F00150BDC3BFF3640E03
:102B20000301C06F00019CEC0DF000C0BDF301502B
:102B3000300E08E10301BEA310D0BEB70ED0BEB95F
:102B4000200E04D00301BE97BE99BE81012601C0AC
:102B5000C2F3000193EC0FF00301BDC3BFF30A0EF3
:102B6000C06F00019CEC0DF000C0BDF30150300EB1
:102B700008E10301BEB70BD0BEA109D0BEB9200E3B
:102B80000001012601C0C2F393EC0FF00301300EE7
:102B9000BD27BDC3C2F3000193EC0FF0000C030E80
:102BA0000301306F8C0E2F6F8BC3BDF31B0EBE6FF6
:102BB0000001B2DF030E0301926F8C0E916F040EC1
:102BC000936F00010EDE030E0301926F8C0E916F66
:102BD000000183DE01C090F3030190C301F0000106
:102BE00088EF16F003018AC3E9FF8BC3EAFFEFCF3A
:102BF00000F0ECCF01F0ECCF02F0ECCF03F003C01B
:102C00008FF302C08EF301C08DF300C08CF389C333
:102C100003F08851882BD8B4892B906F03C091F3AF
:102C200003C093F3926F8CC394F3000191EC06F010
:102C3000030189C303F08851882BD8B4892B906F86
:102C400003C091F303C093F3926F8DC394F300011B
:102C500091EC06F0030189C303F08851882BD8B4A6
:102C6000892B906F03C091F303C093F3926F8EC3CF
:102C700094F3000191EC06F089C393F388C392F3B7
:102C80008FC394F391EC06F0A3EF16F082C389F39F
:102C900081C388F3030E03018B6F830E8A6F0001DB
:102CA00088EC07F00301876B8751030842E3900E1D
:102CB000F66E040EF76E060E8D6F00016CEC0DF0D3
:102CC00087C388F31B0E0301896F0001B2EC0DF07E
:102CD0003A0E9EA8FED7AD6E200E9EA8FED7AD6E12
:102CE000036A03018751830F016E030E032201C0A3
:102CF00088F303C089F3036A8751830FE96E030EDB
:102D00000320EA6EEFCF8AF38AC38BF3000147D723
:102D100089C3EAFF88C3E9FF01C0EFFF0D0E9EA83B
:102D2000FED7AD6E0A0E9EA8FED7AD6E0301872BAF
:102D3000BBD782C389F381C388F3030E8B6F830EE5
:102D40008A6F00014FD7000C9C0EF66E040EF76ED2
:102D500088EC06F00301806BCD0E7F6F7E6B7E5199
:102D600005083BE3AC0EF66E040EF76E080E8D6F91
:102D700000016CEC0DF07EC388F31B0E0301896F1C
:102D80000001B2EC0DF03A0E9EA8FED7AD6E200EFB
:102D90009EA8FED7AD6E80C393F37FC392F30BEC76
:102DA00006F001C081F301C082F38FD601C07DF32C
:102DB000030180C303F07F517F2BD8B4802B816F38
:102DC00003C082F303C093F3926F7DC394F30001B9
:102DD00091EC06F003017E2BC2D7BA0EF66E040EFC
:102DE000F76E000188EC06F09EAAFED7AECF7DF309
:102DF00003017D51600806E27D517A0803E37D51AD
:102E0000DF0B01D07D517D6F7D51590806E07D516A
:102E10004E08D8B402D00001E7D77D510001DDDCB7
:102E200003017D514E082DE1936BC00E926F946BA0
:102E3000000191EC06F0D00EF66E040EF76E88ECF1
:102E400006F00301826BC50E816F00011FDFE20EE9
:102E5000F66E040EF76E88EC06F00301826BC10E6D
:102E6000816F000113DFF00EF66E040EF76E88EC32
:102E700006F00301826BC90E816F000107DF09D0E4
:102E80000301936BC00E926F010E946F000191ECE1
:102E900006F0FE0EF66E040EF76E88EC06F0FF00EC
:102EA0007EEF17F09EAAFED7AECF7CF303017C51D4
:102EB000600806E27C517A0803E37C51DF0B01D005
:102EC0007C517C6F7C51540A000107E0100A08E035
:102ED000170A09E0090A09E011D062EF11F00ED0DB
:102EE00038EC0EF00BD030D709D0E6EC06F06E0EC1
:102EF000F66E050EF76E88EC06F000D0DFEC0EF0F3
:102F000047EF54F0010E0301826F0001D8EC08F086
:102F100001C082F3000E030101B4010E016E000135
:102F2000000C01507CC3BFF3640E0301C06F0001AD
:102F30009CEC0DF000C07CF30150300E08E1030161
:102F40007DA310D07DB70ED07DB9200E04D0030133
:102F50007D977D997D81012601C0A6F3000152EC89
:102F600006F003017CC3BFF30A0EC06F00019CECA6
:102F70000DF000C07CF30150300E08E103017DB775
:102F80000BD07DA109D07DB9200E0001012601C022
:102F9000A6F352EC06F00301300E7C277CC3A6F3A7
:102FA000000152EC06F0000CAA0EF66E010EF76E50
:102FB00080EC06F0A7DF015249E086A109D00301A9
:102FC000936BC00E926F00010BEC06F0015209E109
:102FD0000301936BC00E926F00010BEC06F00152DF
:102FE00035E10A0E0301A66F000152EC06F016C08F
:102FF0007CF31B0E03017D6F000193DF2E0E030196
:10300000A66F000152EC06F017C07CF31B0E030103
:103010007D6F000186DF2E0E0301A66F000152ECCA
:1030200006F018C07CF31B0E03017D6F000179DFF1
:103030002E0E0301A66F000152EC06F019C07CF3BE
:103040001B0E03017D6F00016CDF10D05BDF0152AE
:1030500007E0C00EF66E010EF76E80EC06F006D0AB
:10306000D00EF66E010EF76E80EC06F04CEF54F0C9
:1030700056A001D033D05680010E525C0301CE6FB2
:10308000000E5358CF6FCF511A0809E2FF0A03E12F
:10309000CE51F70804E21B0ECF6FF70ECE6F1E0E57
:1030A0000401326F400E336F00014AEC08F0040156
:1030B0002E6B0C0E2D6F000159EC08F00C0E040164
:1030C000306FCEC331F400012CEC08F00D0E04017A
:1030D000306FCFC331F400012CEC08F0000C040178
:1030E0001D6B1E6B95928C923A0E356F000104ECAD
:1030F00008F004011E511C5D1CE303E11B511D5D22
:1031000018E21AC403F019C41FF41AC420F4356B72
:10311000000104EC08F020C4EAFF1FC4E9FF01C06D
:10312000EFFF0401192BD8B41A2B1D2BD8B41E2B7A
:10313000E1D795928C821DC401F01EC402F00001FB
:10314000000C2BC42CF42AC42DF404012CC401F06F
:103150002DC402F00001000C010E04012E6F190EA7
:103160002D6F000159EC08F0190E04012A6F0001BF
:103170000CEC08F001C09AF303019A5303E1000E2E
:10318000016E85D056B006D0000172DF000E016ED0
:1031900003017DD053C055F052C054F004012E6B92
:1031A0002D6B000159EC08F00401306B52C031F472
:1031B00000012CEC08F0010E0401306F53C031F413
:1031C00000012CEC08F0030E03019B6F860E9BC3DD
:1031D0001AF4E8CF19F404011C6B140E1B6F0001E4
:1031E0007EDF99C32BF498C32AF4ABDF02C099F3B6
:1031F00001C098F3030187511A0805E2FF0A19E19B
:103200008651F70816E3030E9B6F860EE96E9BC38B
:10321000EAFFEFB00ED08BBF0CD08AB90AD089512B
:10322000040805E2FF0A05E18851EE0802E38ABFBF
:1032300001D0FF0087C353F086C352F082C39AF3D4
:1032400083C39BF383C3EAFF82C3E9FF030EE26EED
:10325000920EE16E060E016EE6CFEEFF012EFCD758
:1032600084C3E9FF85C3EAFFFF0EEF6E995108089A
:103270000BE1985303E09851060806E184C3E9FF87
:1032800085C3EAFF98C3EFFF5690010E016E00015F
:10329000A4EF50F00301ADC301F0AEC303F0ADC322
:1032A000AFF3AEC3B0F3ADC3E9FFAEC3EAFFECCFFB
:1032B000B2F3ED52EFCFB1F3B2C32BF4B1C32AF4A2
:1032C00000013FDFB0C3EAFFAFC3E9FF02C0ECFF7C
:1032D000ED5201C0EFFF020E0301AD25016E000E9D
:1032E000AE21036E01C0AFF3B06F020EAD25E96EE3
:1032F000000EAE21EA6EECCFB2F3ED52EFCFB1F398
:10330000B2C32BF4B1C32AF400011BDFB0C3EAFF40
:10331000AFC3E9FF02C0ECFFED5201C0EFFF060EA4
:103320000301AD25016E000EAE21036E01C0AFF3A7
:10333000B06F060EAD25E96E000EAE21EA6EECCF41
:10334000B2F3ED52EFCFB1F3B2C32BF4B1C32AF411
:103350000001F7DEB0C3EAFFAFC3E9FF02C0ECFF34
:10336000ED5201C0EFFF000C030E04011A6F910E25
:10337000196F1C6B1C0E1B6F0001B1DE79DE030E92
:103380000301AE6F910EAD6F000184DF0301912D3B
:1033900008D0925306E19551060803E196510408BE
:1033A00003E0000E016E4ED09751020808E19853D9
:1033B00006E18FC3E9FF90C3EAFFEF6A14D0972DAF
:1033C00009D0985307E18FC3E9FF90C3EAFF010ECC
:1033D000EF6E09D08FC3E9FF90C3EAFF020EEF6ED4
:1033E000000E016E2FD01650A95D29E11750AA5D7D
:1033F00026E11850AB5D23E11950AC5D20E18DC38F
:10340000E9FF8EC3EAFF030EE26E990EE16E060E2F
:10341000016EE6CFEEFF012EFCD7060E8D25E96E7C
:10342000000E8E21EA6E9FC3EFFFA0C3ECFFA1C385
:10343000ECFFA2C3ECFF010E016E04D003D0000E1E
:10344000016E00D0000119EF1DF01F0E04012A6F5C
:1034500000010CEC08F001C00CF4000E040101B6F0
:10346000010E000A02E1000E01D0FF0E016E00D035
:103470000001000C24C44DF0070E040125271C0E8A
:1034800026232E6B020E2D6F000159EC08F0040E5E
:103490000401286F250EE96E28C4EAFFEFCF29F456
:1034A000306B29C431F400012CEC08F0040E040147
:1034B000286F250E276F010E2725E96E000E2821A3
:1034C000EA6EEFCF29F4010E306F29C431F4000108
:1034D0002CEC08F0040E0401286F250EE96E28C4B8
:1034E000EAFFEFCF29F4020E306F29C431F4000156
:1034F0002CEC08F0040E0401286F250E276F010E36
:103500002725E96E000E2821EA6EEFCF29F4030E7D
:10351000306F29C431F400012CEC08F0000C9592B6
:103520008C927A0E0401356F000104EC08F02EC471
:1035300035F404EC08F095928C82000C95928C92F4
:103540007A0E0401356F000104EC08F0040132C466
:1035500003F03151D8B432073107031012E030C400
:1035600003F02FC4E9FF30C4EAFFEFCF33F433C4D4
:1035700035F4000104EC08F004012F2BD8B4302BF3
:10358000E6D795928C820001000C04012E6B020E8E
:103590002D6F000159EC08F0020E0401306FF80E97
:1035A000316F00012CEC08F0030E0401306F1B0E8C
:1035B000316F00012CEC08F0060E04012B271C0EC5
:1035C0002C23040E2E6F2B0EE96E2EC4EAFFEFCFD4
:1035D0002FF4060E306F2FC431F400012CEC08F0EC
:1035E000040E04012E6F2B0E2D6F010E2D25E96E9A
:1035F000000E2E21EA6EEFCF2FF4070E306F2FC48E
:1036000031F400012CEC08F004012E6B000187DF7F
:1036100029C430F428C42FF40401326B060E316F34
:1036200000018CDF04012E6B1A0E2EC430F42F6FB4
:10363000326B060E316F000181DF080E04012E6F20
:1036400000016DDF04012A5302E1000E01D0060ED5
:103650002E6F000164DF000C1C0E04012A6F0001B4
:103660000CEC08F001C017F4000E040101B2010EC9
:10367000000A10E01F0E326F800E336F00014AEC1B
:1036800008F01F0E04012F6F800E306F00013BEC1D
:1036900008F004011C0E2F6F0A0E306F00013BEC86
:1036A00008F01F0E0401326F080E336F00014AEC60
:1036B00008F057500508D8A4E0D01C0E04012A6F6A
:1036C00000010CEC08F001C017F4040101500A0BD2
:1036D000D8A402D00001F1D71C0E2A6F00010CEC17
:1036E00008F001C017F4000E040101B2010E000A37
:1036F000D8B4C4D01F0E2F6F080E306F00013BEC02
:1037000008F004012E6B2D6B000159EC08F0040148
:103710002A6B00010CEC08F001C00BF4010E04014F
:103720002A6F00010CEC08F001C00CF4060E040135
:103730002A6F00010CEC08F001C00DF4070E040123
:103740002A6F00010CEC08F001C00EF404010D2BEF
:10375000D8B40E2B306B0DC431F400012CEC08F002
:10376000010E0401306F0EC431F400012CEC08F09E
:10377000040E0401186F0F0E18C41AF4196F1C6B95
:10378000070E1B6F0001ABDC0401166B16510F080E
:1037900066E31C0E2A6F00010CEC08F001C017F460
:1037A000000E040101B2010E000A54E012AB52D027
:1037B0001F0E326F800E336F00014AEC08F01F0EAF
:1037C00004012F6F800E306F00013BEC08F01C0EDF
:1037D00004012F6F0A0E306F00013BEC08F01F0E42
:1037E0000401326F080E336F00014AEC08F01C0E22
:1037F00004012A6F00010CEC08F001C017F4040169
:1038000001500A0BD8A402D00001F1D71F0E2F6F70
:10381000080E306F00013BEC08F00401306B0DC462
:1038200031F400012CEC08F0010E0401306F0EC4DD
:1038300031F400012CEC08F0040E0401186F0F0E97
:1038400018C41AF4196F1C6B070E1B6F000147DCBC
:1038500003D0040104D000010401162B97D7306B6C
:103860000BC431F400012CEC08F0010E0401306FA0
:103870000CC431F400012CEC08F004010001000C30
:10388000010E04010B6F0001E0DD01C0ACF3030188
:10389000AC3D03D0000E016EB8D0ACC324F40401DB
:1038A000266B256B0001E6DD0301916B010E906F25
:1038B000080E936F926B060E946F040E956F8F2D0A
:1038C0000BD0976B010E966FFF0EA26FA36FA46FC4
:1038D000A56FA66FA76F17D0976B020E966F8EC35A
:1038E00003F08DC3ADF38EC3AEF3030EEA6EA20EEA
:1038F000E96E8EC3E2FF8DC3E1FF060E016EE6CFD7
:10390000EEFF012EFCD7030EEA6E980EE96EE26A16
:103910001A0EE16E060E016EE6CFEEFF012EFCD709
:1039200019C0A1F318C0A0F317C09FF316C09EF3EF
:10393000060E8D25E96E000E8E21EA6EEFCF00F0A7
:10394000ECCF01F0ECCF02F0ECCF03F000509E1969
:10395000AD6F01509F19AE6F0250A019AF6F0350A9
:10396000A119B06FAD512014006EAE512114016E3B
:10397000AF512214026EB0512314036E005206E1BF
:10398000015204E1025202E1035209E027C0ABF305
:1039900026C0AAF325C0A9F324C0A8F316D0060EAA
:1039A0008D25E96E000E8E21EA6EEFCF00F0ECCF90
:1039B00001F0ECCF02F0ECCF03F003C0ABF302C098
:1039C000AAF301C0A9F300C0A8F3030EAE6F900ED6
:1039D000AD6F00015FDC030E0401296FA20E286F9A
:1039E000060E2A6F2C6B1C0E2B6F0001CEDD030E12
:1039F0000401306F900E2F6F326B1C0E316F00017F
:103A00009DDD2ADE010E016E0301000145EF1DF070
:103A1000000E56B2010E000A01E02FD0030E030182
:103A20008E6F820E8D6F030E906F8C0E8F6F000164
:103A30009BD4015201E131D038EC18F003018C53D2
:103A40001AE1010EEA6E5B0EE96E030EE26E820E63
:103A5000E16E060E016EE6CFEEFF012EFCD78BC3A2
:103A600064F18AC363F189C362F188C361F1000123
:103A700014D003D0030156820001030E03018E6FA0
:103A8000820E8D6F8F6B0001FBD6015202E05692C1
:103A900003D0000E016E03D000D0010E016ECFEFF7
:103AA00050F0140E54240301E16F000E5520E26F14
:103AB000DB51E125DF6FDC51E221E06FE0511A08B4
:103AC00009E2FF0A03E1DF51F70804E2F80EDF5FC5
:103AD0001B0EE05B04012E6B100E2D6F000159ECE4
:103AE00008F0100E0401306FDFC331F400012CEC3C
:103AF00008F0110E0401306FE0C331F400012CEC2A
:103B000008F0010E0301DD5D006E000EDE59036E4C
:103B10000050DF270350E023E0511A0809E2FF0AB2
:103B200003E1DF51F70804E2F80EDF5F1B0EE05BF4
:103B3000120E0401306FDFC331F400012CEC08F0E9
:103B4000130E0401306FE0C331F400012CEC08F0D7
:103B50001F0E0401326F300E336F00014AEC08F083
:103B60001F0E04012A6F00010CEC08F001C0E1F304
:103B7000000E030101BA010E000AD8B402D0000100
:103B8000EFD7160E04012A6F00010CEC08F001C0FB
:103B9000E0F3170E04012A6F00010CEC08F001C0DD
:103BA000DFF30301DFC301F0E0C302F00001000C0A
:103BB000140E54240301B76F000E5520B86FB35193
:103BC000B725B56FB451B821B66FB6511A0809E2DE
:103BD000FF0A03E1B551F70804E2F80EB55F1B0ECA
:103BE000B65B04012E6B2D6B000159EC08F004014B
:103BF000306BB5C331F400012CEC08F0010E040168
:103C0000306FB6C331F400012CEC08F0020E040151
:103C1000306FB5C331F400012CEC08F0030E040141
:103C2000306FB6C331F400012CEC08F0000C020E2A
:103C300004012425016E000E2521036E01C026F427
:103C4000276F020E2425E96E000E2521EA6EECCFC7
:103C500029F4ED52EFCF28F429C42BF428C42AF418
:103C60000001A1EC18F027C4EAFF26C4E9FF02C056
:103C7000ECFFED5201C0EFFF040E04012425016E9C
:103C8000000E2521036E01C026F4276F040E2425A3
:103C9000E96E000E2521EA6EECCF29F4ED52EFCF4C
:103CA00028F429C42BF428C42AF40001A1EC18F04C
:103CB00027C4EAFF26C4E9FF02C0ECFFED5201C0B1
:103CC000EFFF0A0E04012425016E000E2521036E6C
:103CD00001C026F4276F0A0E2425E96E000E252167
:103CE000EA6EECCF29F4ED52EFCF28F429C42BF47F
:103CF00028C42AF40001A1EC18F027C4EAFF26C466
:103D0000E9FF02C0ECFFED5201C0EFFF000C030E13
:103D10000301A16F8C0EA1C31AF4E8CF19F40401BA
:103D20001C6B140E1B6F00016FEC18F003018C511B
:103D3000F00B400803E0000E016E5DD08C510F0BBC
:103D4000006E00340001896F8937FC0E891703016A
:103D5000DC6BDB6BDE6B89C0DDF30001A2DE02C031
:103D60008BF301C08AF30301B46B89C0B3F3000184
:103D70001FDF03018A518B1103E0000E016E3BD05F
:103D8000030E0401256F8C0E246F000150DF030128
:103D9000825183110CE082C3E9FF83C3EAFF9CC315
:103DA000EFFF9DC3ECFF9EC3ECFF9FC3ECFF060E2D
:103DB0008425E96E000E8521EA6E98C3EFFF99C352
:103DC000ECFF9AC3ECFF9BC3ECFF86C3E9FF87C3FC
:103DD000EAFF95C3EFFF88C3E9FF89C3EAFF00014B
:103DE000895103018E5D006E000E8F5900C0EFFFF8
:103DF000EC6E010E016E0001E9EF50F004011C6B46
:103E00001B6B1A6B196BD8901031126F0F31116F39
:103E10000EC414F40DC413F412C403F01151D8B439
:103E200012071107031017E014C403F013C400F0C5
:103E3000020E1327D8B0142B00C0E9FF03C0EAFF1D
:103E4000ECCF03F0ED52EF50192703501A23000E68
:103E50001B231C23E1D70F51010B006E036A005096
:103E600003100AE013C4E9FF14C4EAFFEF50192756
:103E7000000E1A231B231C231CC418F41BC417F4A4
:103E80001AC416F419C415F418C412F417C411F4A2
:103E9000115302E112531FE01C6B1B6B206B1F6B55
:103EA0001AC41EF419C41DF4026A036A11511925BB
:103EB000196F12511A211A6F02501F211B6F0350E4
:103EC00020211C6F1CC418F41BC417F41AC416F468
:103ED00019C415F4D9D71AC403F0031E1951FF0AE7
:103EE000016E03C002F00001000C89510301AF25EF
:103EF000B16F000EB021B26FB46FB1C3B3F3000164
:103F000057DE000C95928C923A0E0401356F000139
:103F100004EC08F00401356B000104EC08F001C06A
:103F20000FF495928C8204010FC401F00001000C83
:103F300004010B5307E10C5305E1FF0E016E026E05
:103F4000A1D017D00B2D15D00C5313E10001DADFEF
:103F50000401106B01C00FF401C003F0000E006AF1
:103F60000006001AFF0E031A00C001F003C002F0A1
:103F700089D02E6B2D6B000159EC08F004012A6BDF
:103F800000010CEC08F001C00DF4010E04012A6FD1
:103F900000010CEC08F001C00EF4100E0401306FAB
:103FA0000DC431F400012CEC08F0110E0401306F47
:103FB0000EC431F400012CEC08F004010E511B0872
:103FC0001BE303E10D51F70817E3010E0B5D006ED3
:103FD000000E0C59036E00500D2703500E230E5196
:103FE0001A0809E2FF0A03E10D51F70804E2F80E8E
:103FF0000D5F1B0E0E5B0AD0010E0B5D006E000EF6
:104000000C59036E00500D2703500E23120E306F13
:104010000DC431F400012CEC08F0130E0401306FD4
:104020000EC431F400012CEC08F01F0E0401326FB5
:10403000300E336F00014AEC08F01F0E04012A6FA6
:1040400000010CEC08F001C00FF4000E040101BAED
:10405000010E000AD8B402D00001EFD7160E2A6F65
:1040600000010CEC08F001C00DF4170E04012A6FDA
:1040700000010CEC08F001C00EF404010DC401F0C5
:104080000EC402F00001000CFF0E0301A66FA86B26
:10409000590EA76FA56BA5510108D8A089D00C0EA9
:1040A000A725E96E000EA821EA6EECCFAAF3ED5227
:1040B000EFCFA9F3020E9F25E96E000EA021EA6E54
:1040C000ECCF03F0ED52EF50A95DD8A46BD00350B4
:1040D000AA5D68E10A0EA725E96E000EA821EA6E26
:1040E000ECCFAAF3ED52EFCFA9F39FC3E9FFA0C332
:1040F000EAFFECCF03F0ED52EF50A95D51E1035020
:10410000AA5D4EE1100EA725E96E000EA821EA6E09
:10411000ECCFAAF3ED52EFCFA9F3A95341E1AA5393
:104120003FE1060EA725E96E000EA821EA6EEFCF4B
:10413000A9F3ECCFAAF3ECCFABF3ECCFACF3060EC4
:10414000A125E96E000EA221EA6EEFCF00F0ECCFC0
:1041500001F0ECCF02F0ECCF03F00050A95D09E1D3
:104160000150AA5D06E10250AB5D03E10350AC5D76
:1041700014E0A3C3E9FFA4C3EAFFEFCFA9F3ECCF98
:10418000AAF3ECCFABF3ECCFACF3A93D09D0AA3D39
:1041900007D0AB3D05D0AC3D03D0A5C301F043D063
:1041A000A5C3A6F3160EA727D8B0A82BA52B73D7A7
:1041B000A63D01D036D0A651160DF350036A590F13
:1041C000016E000E032201C0A7F303C0A8F3A8C329
:1041D00003F0A7C3A9F3A8C3AAF3A8C3EAFFA7C320
:1041E000E9FFA2C3E2FFA1C3E1FF0A0E016EE6CF21
:1041F000EEFF012EFCD70A0EA725016E000EA821A6
:104200009FC3E9FFA0C3EAFFECCF03F0ED52EFCF6D
:10421000ABF3EA6E01C0E9FF03C0ECFFED52ABC3A4
:10422000EFFFA6C301F00001E6EF21F0030E040149
:104230001A6F880E196F1C6B080E1B6F00016FEC54
:1042400018F089C32BF488C32AF4A1EC18F002C03B
:1042500089F301C088F38BC32BF48AC32AF4A1EC41
:1042600018F002C08BF301C08AF38DC32BF48CC30A
:104270002AF4A1EC18F0080E0301015C8C6F000E0B
:1042800002588D6F8E518F11D8B492D08FC32BF4FA
:104290008EC32AF40001A1EC18F002C08FF301C014
:1042A0008EF3060E03018225E96E000E8321EA6E6D
:1042B000EFCF00F0ECCF01F0ECCF02F0ECCF03F049
:1042C00003C094F302C093F301C092F300C091F3D2
:1042D00084C3E9FF85C3EAFFEFCF95F3010E842580
:1042E000E96E000E8521EA6EEFCF96F3020E84256B
:1042F000E96E000E8521EA6EEFCF97F3030E842559
:10430000E96E000E8521EA6EEFCF98F3996B110EDE
:104310009A6F87C39CF386C39BF39CC32BF49BC308
:104320002AF40001A1EC18F002C09CF301C09BF339
:10433000030E04010E6F910E0D6F106B0C0E0F6FBC
:1043400000015CDD01C09DF303019D1F02C09EF3CF
:104350009E1FB06B060EAF6F0001C7DD9DC32EF42C
:104360008FEC1AF00301B06B070EAF6F0001BDDDDB
:104370009EC32EF48FEC1AF00301B06BAF6B0001FB
:10438000B4DD87C30CF486C30BF4D2DD02C09EF308
:1043900001C09DF303018E519D5D03E18F519E5D30
:1043A00007E0000138EC18F0010E016E42D0030165
:1043B000030EA06F880E9F6F83C3A2F382C3A1F385
:1043C00085C3A4F384C3A3F300015ED601C090F3B8
:1043D0000301903D05D0000138EC18F028D003010E
:1043E0009051160DF350A06B9F6F100E9F25016E1C
:1043F000000EA021036E0150590FE96E000E03203C
:10440000EA6E8DC3ECFFED528CC3EFFF9051160D99
:10441000F350A06B9F6F150E9F27000EA023590E1F
:104420009F25E96E000EA021EA6EEF800001010ECB
:10443000016E21EF51F016C417F415C418F414C41A
:1044400019F413C41AF417C400F018C401F019C405
:1044500002F01AC403F0000C04010BC401F00CC4F8
:1044600003F00BC40DF40CC40EF40BC4E9FF0CC430
:10447000EAFFECCF10F4ED52EFCF0FF410C42BF4A1
:104480000FC42AF40001A1EC18F00EC4EAFF0DC419
:10449000E9FF02C0ECFFED5201C0EFFF020E040184
:1044A0000B25016E000E0C21036E01C00DF40E6F82
:1044B000020E0B25E96E000E0C21EA6EECCF10F413
:1044C000ED52EFCF0FF410C42BF40FC42AF4000107
:1044D000A1EC18F00EC4EAFF0DC4E9FF02C0ECFF26
:1044E000ED5201C0EFFF040E04010B25016E000E1A
:1044F0000C21036E01C00DF40E6F040E0B25E96E46
:10450000000E0C21EA6EEFCF0FF4ECCF10F4ECCFDD
:1045100011F4ECCF12F412C416F411C415F410C443
:1045200014F40FC413F4000186DF0EC4EAFF0DC4B7
:10453000E9FF00C0EFFF01C0ECFF02C0ECFF03C0C9
:10454000ECFF080E04010B25016E000E0C21036E1A
:1045500001C00DF40E6F080E0B25E96E000E0C2144
:10456000EA6EEFCF0FF4ECCF10F4ECCF11F4ECCFF8
:1045700012F412C416F411C415F410C414F40FC4C8
:1045800013F4000158DF0EC4EAFF0DC4E9FF00C0B8
:10459000EFFF01C0ECFF02C0ECFF03C0ECFF0E0E0A
:1045A00004010B25016E000E0C21036E01C00DF4F9
:1045B0000E6F0E0E0B25E96E000E0C21EA6EECCF8D
:1045C00010F4ED52EFCF0FF410C42BF40FC42AF403
:1045D0000001A1EC18F00EC4EAFF0DC4E9FF02C00F
:1045E000ECFFED5201C0EFFF100E04010B25016E30
:1045F000000E0C21036E01C00DF40E6F100E0B2582
:10460000E96E000E0C21EA6EECCF10F4ED52EFCF04
:104610000FF410C42BF40FC42AF40001A1EC18F01D
:104620000EC4EAFF0DC4E9FF02C0ECFFED5201C069
:10463000EFFF120E04010B25016E000E0C21036E1C
:1046400001C00DF40E6F120E0B25E96E000E0C2149
:10465000EA6EECCF10F4ED52EFCF0FF410C42BF450
:104660000FC42AF40001A1EC18F00EC4EAFF0DC437
:10467000E9FF02C0ECFFED5201C0EFFF000CFE0E9F
:104680000301B56FB46BB4510408D8A07AD0B4510B
:10469000240DF350036A8C0F016E000E032201C03B
:1046A000B2F303C0B3F3B2C3E9FFB3C3EAFFEF5001
:1046B0000A0865E00B0EB225E96E000EB321EA6E22
:1046C000ECCFB7F3ED52EFCFB6F3020EAE25E96EA5
:1046D000000EAF21EA6EECCF03F0ED52EF50B65D65
:1046E0004EE10350B75D4BE1B2C3E9FFB3C3EAFF4C
:1046F000EF5202E1B4C3B5F30D0EB225E96E000E20
:10470000B321EA6EECCFB7F3ED52EFCFB6F3AEC301
:10471000E9FFAFC3EAFFECCF03F0ED52EF50B65D17
:104720002EE10350B75D2BE1070EB225E96E000EB6
:10473000B321EA6EEFCFB6F3ECCFB7F3ECCFB8F31B
:10474000ECCFB9F3060EB025E96E000EB121EA6E8A
:10475000EFCF00F0ECCF01F0ECCF02F0ECCF03F0A4
:104760000050B65D0CE10150B75D09E10250B85D43
:1047700006E10350B95D03E1B4C301F06CD0B42B82
:1047800082D7B551FE0803E1FE0E016E64D0B5512B
:10479000240DF350036A8C0F016E000E032201C03A
:1047A000B2F303C0B3F3010EB225B66F000EB3210E
:1047B000B76FEA6EB6C3E9FFB1C3E2FFB0C3E1FF72
:1047C0000A0E016EE6CFEEFF012EFCD70D0EB225CC
:1047D000016E000EB321AEC3E9FFAFC3EAFFECCF19
:1047E00003F0ED52EFCFB8F3EA6E01C0E9FF03C06A
:1047F000ECFFED52B8C3EFFF230EB225E96E000EB9
:10480000B321EA6EEF960F0EB225E96E000EB321CA
:10481000EA6EEF3C01D016D00F0EB225E96E000E05
:10482000B321EA6EEFCFB6F3B6C3CFF3000102ECCB
:1048300000F00F0E0301B225E96E000EB321EA6EFF
:10484000FF0EEF6E230EB225E96E000EB321EA6E65
:10485000EF82B5C301F00001A9EF2DF0F29A4FC02D
:10486000CFF34EC0CEF3F28A0301CEC301F0CFC323
:1048700002F00001000C0F0E0301CC25E96E000EC2
:10488000CD21EA6EEF3C01D01DD00F0ECC25E96E94
:10489000000ECD21EA6EEFCFCEF3CEC3CFF30001F1
:1048A00002EC00F00F0E0301CC25E96E000ECD21C5
:1048B000EA6EFF0EEF6E230ECC25E96E000ECD21C1
:1048C000EA6EEF82070ECC25E96E000ECD21EA6E6E
:1048D000EE52EE52EC6AED52EF6AED52EF6AED5293
:1048E000EF6A0D0ECC25E96E000ECD21EA6EEC6A62
:1048F000ED52EF6A230ECC25E96E000ECD21EA6E53
:10490000EFA604D0000138EC18F00301230ECC25EB
:10491000E96E000ECD21EA6EEF96210ECC25E96EF0
:10492000000ECD21EA6EEC6AED521E0EEF6E230EE4
:10493000CC25E96E000ECD21EA6EEF98230ECC2532
:10494000E96E000ECD21EA6EEFA006D0CCC3E9FFE0
:10495000CDC3EAFFEF6A06D0CCC3E9FFCDC3EAFFBF
:104960000A0EEF6E100ECC25E96E000ECD21EA6E18
:10497000EC6AED52EF6A0001000C1F0E04012A6F71
:1049800000010CEC08F001C00CF4000E040101B6AB
:10499000010E000A02E0000E01D0010E016E00D0EF
:1049A0000001000C010E04012E6F190E2D6F000185
:1049B00059EC08F0190E04012A6F00010CEC08F004
:1049C00001C00BF404012E6B0E0E2D6F000159EC8B
:1049D00008F00E0E04012A6F00010CEC08F001C073
:1049E0000DF40F0E04012A6F00010CEC08F001C059
:1049F0000EF4010E04012E6F190E2D6F000159ECFB
:104A000008F0190E04012A6F00010CEC08F001C037
:104A10000FF404010B51015CD8B402D00001CAD7D5
:104A20002E6B0C0E2D6F000159EC08F00C0E0401DA
:104A30002A6F00010CEC08F001C00BF40D0E04010C
:104A40002A6F00010CEC08F001C00CF404010C51B9
:104A50000E5D16E303E10D510B5D12E20B510D5D8E
:104A6000006E0C510E59036E0050FF0AF80F006ED5
:104A70001B0E035600C001F003C002F01DD01CD075
:104A80000B510D5D09E10C510E5D06E1F70E016E53
:104A90001B0E026E11D010D00D510B5D0F6F0E5119
:104AA0000C59106F010E0F5D006E000E1059036E51
:104AB00000C001F0026E00D00001A5EF26F0060E46
:104AC000040124252A6F1C0E25212B6F010E2A2597
:104AD000286F000E2B21296F2E6B100E2D6F0001F9
:104AE00059EC08F0100E0401306F28C431F40001B5
:104AF0002CEC08F0110E0401306F29C431F40001D0
:104B00002CEC08F0010E0401265D006E000E275902
:104B1000036E0050282703502923120E306F28C43B
:104B200031F400012CEC08F0130E0401306F29C49D
:104B300031F400012CEC08F01F0E0401326F300E2E
:104B4000336F00014AEC08F01F0E04012A6F0001C8
:104B50000CEC08F001C02AF4000E040101BA010EA9
:104B6000000AD8B402D00001EFD7160E2A6F000158
:104B70000CEC08F001C029F4170E04012A6F0001A3
:104B80000CEC08F001C028F4040128C401F029C489
:104B900002F00001000C140E896F450E0401106F25
:104BA000116B140E0E25126F000E0F21136F0001F2
:104BB000872BD8B4882B88C015F487C014F404015F
:104BC000176B166B640E186F0DC419F41B6B1A6B00
:104BD00019C01FF418C01EF417C01DF416C01CF431
:104BE000060E0B25E96E000E0C21EA6EEFCF00F0E9
:104BF000ECCF01F0ECCF02F0ECCF03F003C023F4D4
:104C000002C022F401C021F400C020F4040E256F7C
:104C1000100E246F000117EC1EF004010BC401F00C
:104C20000CC403F00BC424F40CC425F4140E0E259C
:104C3000266F000E0F21276F0CC429F40BC428F433
:104C40002A6B2C6F26C42BF40001C5EC1AF0040E5D
:104C50000401256F100E25C430F42F6F326B140E33
:104C6000316F00019EEC1AF00401256B246B276B59
:104C7000140E266F000123DF02C01BF401C01AF4DA
:104C80004DC024F40401266B0A0E256F00013AEC96
:104C90001AF0040E0401256F1A0E25C430F42F6F8C
:104CA000326B020E316F00019EEC1AF04DC024F4FD
:104CB0000401266B140E256F00013AEC1AF0000E69
:104CC000016E026E000C010E04010B6F000155DE37
:104CD0000152F9E00301E23D09D0010E04010B6F1E
:104CE000000125EC1AF001C0E2F30301E23D01D01E
:104CF00005D1E2C324F40401266B140E256F0001D4
:104D00003AEC1AF0D6C3E8F3D5C3E7F3D8C3EAF315
:104D1000D7C3E9F3DCC3EEF3DBC3EDF3DAC3ECF3A3
:104D2000D9C3EBF3E0C3F2F3DFC3F1F3DEC3F0F377
:104D3000DDC3EFF33F0E0301F415F46FF00EF3152E
:104D4000F36FE1C3F4F300012DD602C0F6F301C006
:104D5000F5F30301F65303E1F551280805E2280EA7
:104D6000F55F000EF65B02D0F66BF56BF86BF76B38
:104D7000FA6BF96B030E04010C6FE70E0B6F000169
:104D80002CEC22F0140E0301E327000EE423E1A330
:104D90000FD0040EE327000EE423020EFB6F040E77
:104DA000FC6FFD6FFE6B0F0EF3156009F36F04D0FF
:104DB0000F0EF3155009F36F19C002F418C001F477
:104DC00017C000F416C0FFF3060ED325E96E000EDF
:104DD000D421EA6EEFCF00F0ECCF01F0ECCF02F07F
:104DE000ECCF03F003C006F402C005F401C004F4E4
:104DF00000C003F40401076B060E086FE4C30AF455
:104E0000E3C309F40AC42BF409C42AF40001A1EC99
:104E100018F002C00AF401C009F4030E04010C6F7B
:104E2000FF0E0CC40EF40D6F106B0C0E0F6F000113
:104E3000FEEC1EF001C0F7F30301F71F02C0F8F308
:104E4000F81FF8C3E6F3F7C3E5F3D4C30CF4D3C3F8
:104E50000BF4060E04010D6FE4C30FF4E3C30EF46C
:104E6000000199DE030E04010C6FE70E0CC430F450
:104E70002F6F326B140E316F00019EEC1AF003019C
:104E8000E1A30DD0030E04010C6FFB0E0CC430F433
:104E90002F6F326B040E316F00019EEC1AF0E2C3EB
:104EA00024F40401266B140E256F00013AEC1AF06D
:104EB000E4C30CF4E3C30BF498EC1FF002C0E6F378
:104EC00001C0E5F3E2C324F40401266B240E256F30
:104ED00000013AEC1AF0E6C32EF48FEC1AF0E5C3A9
:104EE0002EF48FEC1AF0E2C324F40401266B256B38
:104EF00000013AEC1AF02CEC1BF003010001000C4D
:104F00000301AE51240DF350036A8C0F016E000EA5
:104F1000032201C0C5F303C0C6F3C76B1E0EC5252F
:104F2000E96E000EC621EA6EEF6A1F0EC525016EFE
:104F3000000EC621036E01C0CCF3CD6F00018EDCE4
:104F4000CDC3EAFFCCC3E9FF02C0ECFFED5201C0C4
:104F5000EFFF210E0301C525E96E000EC621EA6EA2
:104F6000EC6AED521E0EEF6E0D0EB125E96E000ECD
:104F7000B221EA6EEFA41ED0000138EC18F0030154
:104F8000C5C301F0C6C303F0C5C3CCF3C6C3CDF39C
:104F9000230EC525E96E000EC621EA6EEFA002D0F1
:104FA000000E01D0010ECDC3EAFFCCC3E9FFEF6EC6
:104FB000ECEF2CF0160EC525E96E000EC621EA6E48
:104FC000EFCF00F0ECCF01F0ECCF02F0ECCF03F02C
:104FD00003C0BCF302C0BBF301C0BAF300C0B9F315
:104FE0000E0EB125E96E000EB221EA6EECCF03F091
:104FF000ED52EFCFCCF303C0CDF3CE6BCF6B080EE9
:10500000B125E96E000EB221EA6EEFCF00F0ECCFD1
:1050100001F0ECCF02F0ECCF03F00050B95D006E70
:105020000150BA59016E0250BB59026E0350BC596F
:10503000036E0050CC5F0150CD5B0250CE5B03503D
:10504000CF5B100EC525E96E000EC621EA6EECCFCF
:1050500003F0ED52EFCF00F003C001F0026A036AE3
:105060000050CC5DC86F0150CD59C96F0250CE5968
:10507000CA6F0350CF59CB6FCBBF01D00AD0140EEB
:10508000C525E96E000EC621EA6EEC6AED52EF6AA4
:105090000AD0140EC525E96E000EC621EA6EB5C30E
:1050A000EFFFB6C3ECFFC5C3E9FFC6C3EAFFEF2CB1
:1050B000BED00D0EB125E96E000EB221EA6EEFB240
:1050C00012D0000138EC18F00D0E0301B125E96E85
:1050D000000EB221EA6EEFA804D0040EC76FB0EF45
:1050E0002CF0ECEF2CF01A0EC525016E000EC62137
:1050F00001C0CCF3CD6F040EB125E96E000EB221D4
:10510000EA6EEFCFCEF3ECCFCFF3ECCFD0F3ECCF12
:10511000D1F3B351CE27B451CF23000ED023D123E6
:10512000010ECE25006E000ECF21016E000ED021A3
:10513000026E000ED121CDC3EAFFCCC3E9FF00C04F
:10514000EFFF01C0ECFF02C0ECFFEC6E1A0EC525AC
:10515000E96E000EC621EA6EEFCF00F0ECCF01F051
:10516000ECCF02F0ECCF03F003C0B8F302C0B7F30A
:1051700001C0B6F300C0B5F30D0EB125E96E000E07
:10518000B221EA6EEFB80ED0C5C3E9FFC6C3EAFF8D
:10519000020EEF6E000138EC18F0120E0301C76F1B
:1051A000B0EF2CF0C5C3E9FFC6C3EAFF030EEF6EF4
:1051B000100EC76F140EC525016E000EC621036EBA
:1051C000CD6F0E0EB125E96E000EB221EA6EECCF66
:1051D00003F0ED52EFCFCEF3CDC3EAFF01C0E9FFFC
:1051E00003C0ECFFED52CEC3EFFFB351B4111AE090
:1051F000230EC525E96E000EC621EA6EEF86120E5B
:10520000C525E96E000EC621EA6EB4C3ECFFED526F
:10521000B3C3EFFF230EC525E96E000EC621EA6E6B
:10522000EF8404D0000138EC18F0030199D3C5C312
:10523000E9FFC6C3EAFFEF52D8A4C7D0000138EC9B
:1052400018F00D0E0301B125E96E000EB221EA6ED1
:10525000EFB203D0040EC76F83D31A0EC525016EBB
:10526000000EC62101C0CCF3CD6F040EB125E96E4E
:10527000000EB221EA6EEFCFCEF3ECCFCFF3ECCF3E
:10528000D0F3ECCFD1F3B351CE27B451CF23000EDE
:10529000D023D123010ECE25006E000ECF21016E4A
:1052A000000ED021026E000ED121CDC3EAFFCCC387
:1052B000E9FF00C0EFFF01C0ECFF02C0ECFFEC6EA5
:1052C000140EC525016E000EC621036ECD6F0E0EA5
:1052D000B125E96E000EB221EA6EECCF03F0ED527B
:1052E000EFCFCEF3CDC3EAFF01C0E9FF03C0ECFF6F
:1052F000ED52CEC3EFFF010EC525CC6F000EC621C7
:10530000CD6FEA6ECCC3E9FFB0C3E2FFAFC3E1FFEC
:105310000A0E016EE6CFEEFF012EFCD70D0EC5255D
:10532000016E000EC621B1C3E9FFB2C3EAFFECCFA4
:1053300003F0ED52EFCFCEF3EA6E01C0E9FF03C0F8
:10534000ECFFED52CEC3EFFFC5C3E9FFC6C3EAFFD2
:10535000020EEF6E160EC525E96E000EC621EA6E2E
:10536000EFCF00F0ECCF01F0ECCF02F0ECCF03F088
:1053700003C0BCF302C0BBF301C0BAF300C0B9F371
:10538000160EC525E96E000EC621EA6E010EEE2648
:10539000000EEE22EE22ED221A0EC525E96E000E59
:1053A000C621EA6EEFCF00F0ECCF01F0ECCF02F0B7
:1053B000ECCF03F003C0B8F302C0B7F301C0B6F3FB
:1053C00000C0B5F3120EC76FCBD21A0EC525E96E19
:1053D000000EC621EA6EEFCF00F0ECCF01F0ECCF6B
:1053E00002F0ECCF03F003C0C0F302C0BFF301C072
:1053F000BEF300C0BDF3160EC525E96E000EC62132
:10540000EA6EEFCF00F0ECCF01F0ECCF02F0ECCF82
:1054100003F003C0C4F302C0C3F301C0C2F300C071
:10542000C1F3040EB125E96E000EB221EA6EEFCF92
:1054300000F0ECCF01F0ECCF02F0ECCF03F003C0B2
:10544000B8F302C0B7F301C0B6F300C0B5F3026A07
:10545000036AB351B527B451B6230250B7230350A2
:10546000B823160EC525E96E000EC621EA6EEFCFF1
:1054700000F0ECCF01F0ECCF02F0ECCF03F003C072
:10548000BCF302C0BBF301C0BAF300C0B9F3040E11
:10549000B125E96E000EB221EA6EEFCFCCF3ECCF6E
:1054A000CDF3ECCFCEF3ECCFCFF3BD51CC5DD8A490
:1054B00049D2BE51CD5DD8A445D2BF51CE5DD8A44E
:1054C00041D2C051CF5DD8A43DD2C5C3E9FFC6C308
:1054D000EAFFEF50020843E10D0EB125E96E000E20
:1054E000B221EA6EEFA836D01A0EC525E96E000E7D
:1054F000C621EA6EB5C3EFFFB6C3ECFFB7C3ECFF3E
:10550000B8C3ECFFC5C3E9FFC6C3EAFF030EEF6EE5
:10551000B351B4111AE0230EC525E96E000EC62161
:10552000EA6EEF86120EC525E96E000EC621EA6E00
:10553000B4C3ECFFED52B3C3EFFF230EC525E96EF4
:10554000000EC621EA6EEF8404D0000138EC18F09A
:10555000030104D0000138EC18F00301F2D11A0E57
:10556000C525E96E000EC621EA6EB5C3EFFFB6C3CE
:10557000ECFFB7C3ECFFB8C3ECFFC5C3E9FFC6C37C
:10558000EAFFEF500308D8A4E5D00D0EB125E96E6F
:10559000000EB221EA6EEFA82ED0230EC525E96ECB
:1055A000000EC621EA6EEFB226D00F0EC525E96EB9
:1055B000000EC621EA6EEF3C01D01DD00F0EC525AE
:1055C000E96E000EC621EA6EEFCFCCF3CCC3CFF369
:1055D000000102EC00F00F0E0301C525E96E000E7C
:1055E000C621EA6EFF0EEF6E230EC525E96E000E92
:1055F000C621EA6EEF820D0EB125E96E000EB221D2
:10560000EA6EEFA05BD0110EC76F160EC525E96ECE
:10561000000EC621EA6EEFCF00F0ECCF01F0ECCF28
:1056200002F0ECCF03F003C0BCF302C0BBF301C037
:10563000BAF300C0B9F3160EC525E96E000EC621F7
:10564000EA6E010EEE26000EEE22EE22ED221A0E7A
:10565000C525E96E000EC621EA6E010EEF24006E2C
:10566000000EEC20016E000EEC20026E000EEC200D
:10567000ED52ED52ED5200C0EFFF01C0ECFF02C051
:10568000ECFFEC6E1A0EC525E96E000EC621EA6E1F
:10569000EFCF00F0ECCF01F0ECCF02F0ECCF03F055
:1056A00003C0B8F302C0B7F301C0B6F300C0B5F34E
:1056B000C5C3E9FFC6C3EAFF090EEF6EB351B411CB
:1056C00044E0230EC525E96E000EC621EA6EEFB652
:1056D0001BD0230EC525E96E000EC621EA6EEF86AB
:1056E000120EC525E96E000EC621EA6EB4C3ECFFAA
:1056F000ED52B3C3EFFF230EC525E96E000EC621A0
:10570000EA6EEF84C78920D0160EC525E96E000E1B
:10571000C621EA6EC1C3EFFFC2C3ECFFC3C3ECFFF7
:10572000C4C3ECFF1A0EC525E96E000EC621EA6E51
:10573000BDC3EFFFBEC3ECFFBFC3ECFFC0C3ECFFB4
:10574000000138EC18F0030104D0000138EC18F027
:105750000301F7D0C5C3E9FFC6C3EAFFEF5009084C
:1057600015E1000138EC18F00D0E0301B125E96ECA
:10577000000EB221EA6EEFA808D0C6C3CDF3C5C3B0
:10578000CCF300013BEC24F00301DBD0C5C3E9FFFF
:10579000C6C3EAFFEF5004086AE1000138EC18F0D4
:1057A0000D0E0301B125E96E000EB221EA6EEFA0E5
:1057B0004DD0100EC76F1A0EC525E96E000EC6211A
:1057C000EA6E010EEF24006E000EEC20016E000E5A
:1057D000EC20026E000EEC20ED52ED52ED5200C0B6
:1057E000EFFF01C0ECFF02C0ECFFEC6E1A0EC52506
:1057F000E96E000EC621EA6EEFCF00F0ECCF01F0AB
:10580000ECCF02F0ECCF03F003C0B8F302C0B7F363
:1058100001C0B6F300C0B5F30D0EB125E96E000E60
:10582000B221EA6EEFA809D0C6C3CDF3C5C3CCF34D
:1058300000013BEC24F008D00301C5C3E9FFC6C357
:10584000EAFF060EEF6E000110D003010D0EB12528
:10585000E96E000EB221EA6EEFA806D0C5C3E9FFDB
:10586000C6C3EAFF050EEF6E00016AD00301C5C38F
:10587000E9FFC6C3EAFFEF50050848E1000138EC34
:1058800018F00D0E0301B125E96E000EB221EA6E8B
:10589000EFA03BD0100EC76F1A0EC525E96E000EA3
:1058A000C621EA6E010EEF24006E000EEC20016EA0
:1058B000000EEC20026E000EEC20ED52ED52ED5287
:1058C00000C0EFFF01C0ECFF02C0ECFFEC6E1A0E4F
:1058D000C525E96E000EC621EA6EEFCF00F0ECCFD1
:1058E00001F0ECCF02F0ECCF03F003C0B8F302C03C
:1058F000B7F301C0B6F300C0B5F3C6C3CDF3C5C35B
:10590000CCF300013BEC24F003011BD0C5C3E9FF3D
:10591000C6C3EAFFEF50060814E1000138EC18F0A6
:105920000D0E0301B125E96E000EB221EA6EEFA85B
:1059300008D0C6C3CDF3C5C3CCF300013BEC24F0C3
:1059400003010ED0000138EC18F0100E0301C76FF0
:10595000C0C3B8F3BFC3B7F3BEC3B6F3BDC3B5F39B
:10596000C7533AE0020EB125E96E000EB221EA6E8D
:10597000ECCFCDF3ED52EFCFCCF3B1C3E9FFB2C31F
:10598000EAFFECCFCFF3ED52EFCFCEF3B0C3D4F3B9
:10599000AFC3D3F3CDC3D6F3CCC3D5F3CFC3D8F3C2
:1059A000CEC3D7F3BCC3DCF3BBC3DBF3BAC3DAF3B8
:1059B000B9C3D9F3B8C3E0F3B7C3DFF3B6C3DEF3BB
:1059C000B5C3DDF3C7C3E1F3FF0EE26FE46BE36B36
:1059D000000163EC26F003010001C0EF2DF0060E7C
:1059E00003018225E96E000E8321EA6EEFCF00F0FD
:1059F000ECCF01F0ECCF02F0ECCF03F003C09FF34B
:105A000002C09EF301C09DF300C09CF384C3E9FF74
:105A100085C3EAFFEFCF00F0ECCF01F0ECCF02F04E
:105A2000ECCF03F003C0A3F302C0A2F301C0A1F3C3
:105A300000C0A0F3A46B060EA56F87C3A7F386C3AF
:105A4000A6F3A7C32BF4A6C32AF40001A1EC18F017
:105A500002C0A7F301C0A6F3030E0301AF6F9C0EB3
:105A6000AFC30EF4E8CF0DF40401106B0C0E0F6FF2
:105A70000001FEEC1EF001C0A9F30301A91F02C042
:105A8000AAF3AA1F87C30CF486C30BF4000198EC99
:105A90001FF002C0ACF301C0ABF30301AC51A95D30
:105AA00003E1AB51AA5D07E0000138EC18F0010EEC
:105AB000016E6DD00301B06BAF6B000175EC1FF090
:105AC000030E0301AF6F880EAFC31AF4E8CF19F4C9
:105AD00004011C6B140E1B6F00016FEC18F0030E19
