:0400000079EF2DF077
:08000800046ED8CF05F0E0CF33
:1000100006F00001E9CF0CF0EACF07F0E1CF08F0DD
:10002000E2CF09F0D9CF0AF0DACF0BF0F3CF12F01C
:10003000F4CF13F0FACF14F000C00EF001C00FF0AF
:1000400002C010F003C011F0F2AA2AEF00F0F2B4DF
:100050005AEF00F00EC000F00FC001F010C002F027
:1000600011C003F00CC0E9FF07C0EAFF078E08C00B
:10007000E1FF09C0E2FF0AC0D9FF0BC0DAFF12C0DE
:10008000F3FF13C0F4FF14C0FAFF045006C0E0FFF2
:1000900005C0D8FF1000F2CF0DF0F29EF76AB00F46
:1000A000F66E000EF7220900F5500DBEF28E12001A
:1000B000280C01064E2AD8B44F2A512A515009085B
:1000C00002E2502A516A850ED76EED0ED66EF2947A
:1000D0002AEF00F00A2020202020202020202020AD
:1000E000202020202020202020000A4448435020A7
:1000F0004E4F5420424F554E44000A4E4F20455417
:100100004845524E4554204C494E4B000C526573A5
:10011000657474696E6720454550524F4D000D0A55
:100120000A0A526573657474696E672045455052BA
:100130004F4D2E2E2E000D0A454550524F4D204357
:100140006C65617265642E20526573657474696EA6
:10015000672E0D0A00000C454550524F4D20436C50
:1001600065617265640050494E5F00002573203C54
:100170002D3E20004641494C205B25585D000D0A6C
:100180000A0A454E4332384A363020546573743A71
:1001900020004641494C00005041535300000D0AD5
:1001A0004154323532353620546573743A2000009C
:1001B0005041535300004641494C20212121000069
:1001C0000D0A426F746820454E4332384A3630205B
:1001D000616E642041543235323536206661696C77
:1001E000212121000D0A0A426C696E6B696E67203D
:1001F0004C4544732E205072657373204134207730
:1002000068656E204C454473206172652076657286
:10021000696669656420776F726B696E672E0D0A77
:1002200000000D0A5475726E2074686520504F549A
:1002300020636F6D706C6574656C7920746F2074C9
:1002400068652072696768742E000D0A5475726EB5
:100250002074686520504F5420636F6D706C657416
:10026000656C7920746F20746865206C6566742EE7
:1002700000000D0A504F5420546573743A205041C9
:1002800053530D0A00000D0A496E73657274207491
:1002900065737420686561646572206E6F772E20C7
:1002A0002050726573732054207768656E207265E4
:1002B0006164792E00000D0A54657374696E6720BD
:1002C000492F4F206865616465723A200D0A00006D
:1002D0000D0A492F4F2068656164657220464149C7
:1002E0004C20212121005041535300000D0A0A5295
:1002F000656D6F76652074657374206865616465EB
:10030000722E202050726573732054207768656EBA
:100310002072656164792E000D0A0A5245534554D6
:1003200054494E4720424F4152440D0A0A000D0ADB
:100330000A4D414320416464726573733A20255825
:100340003A25583A25583A25583A25583A2558001A
:100350000D0A4448435020456E61626C65643A2042
:1003600000005452554500000D0A444843502042B5
:100370006F756E643A2000005452554500004641A6
:100380004C53450046414C5345000D0A495020410D
:100390006464726573733A2000000D0A47617465E6
:1003A0007761793A20000D0A4E65746D61736B3A7E
:1003B00020000D0A5544502044657374696E6174C1
:1003C000696F6E2049503A2000000D0A55445020B4
:1003D00044657374696E6174696F6E20506F7274D6
:1003E0003A20254C55000D0A55445020536F757224
:1003F000636520506F72743A20254C550000202010
:100400004259544525553A2000000D0A0A4D4143F2
:1004100020414444524553533A000D0A202042598A
:10042000544525553A2000000D0A0A5553452044ED
:100430004843503F2028592F4E293A2000000D0AEA
:100440000A495020414444524553533A0D0A000092
:100450000D0A474154455741593A0D0A00000D0A0B
:100460004E45544D41534B3A0D0A00000D0A0A53B4
:100470006176656420746F20454550524F4D2E20A3
:1004800020526573657474696E672E2E2E000D0AF6
:100490000A5544502044657374696E6174696F6EC7
:1004A0002049503A0D0A00000D0A55445020446579
:1004B0007374696E6174696F6E20506F7274202856
:1004C000492077696C6C207472616E736D69742059
:1004D000746F207468697320706F7274293A2000F9
:1004E0000D0A55445020536F7572636520506F722A
:1004F000742028492077696C6C206C697374656E70
:1005000020746F207468697320706F7274293A20A8
:1005100000000D0A0A536176656420746F2045451A
:1005200050524F4D2E2020526573657474696E676A
:100530002E2E2E000D0A0A442920446973706C6126
:10054000792053657474696E677300000D0A53292E
:1005500020436F6E666967757265205443502F495A
:10056000502028526573657429000D0A55292043CF
:100570006F6E6669677572652055445000000D0AFC
:100580005A2920436C65617220454550524F4D20D9
:100590002821212129000D0A454550524F4D204365
:1005A0006C65617265640D0A00000C4E4F20455465
:1005B0004845524E455400000C44484350204E4F8D
:1005C0005420424F554E44000C52583A2045525246
:1005D0004F5200000C52583A204144433D255800E8
:1005E0000A54583A20434F4E4E4543544544000068
:1005F0000A54583A20434F4E4E454354494E470003
:100600000D0A0A0A45585F53545F5544502E432043
:100610002D20554450205472616E736D69742F52B1
:10062000656365697665204578616D706C650D0A56
:100630000A00010EEA6E240EE96EEF500DE0060E80
:10064000016E006A002EFED7012EFBD77B0E006ED6
:10065000002EFED7EF2EF3D7000C01012B39F00B43
:10066000006E0F0E8C1400108C6E00D000D00000B5
:100670008D84030E006E002EFED78D940001000CB9
:100680000F0E9514F009956E8D8200D000D00000F9
:100690008D8400D000D0000083380F0B01012B6F38
:1006A0008D9400D000D000008D8400D000D00000D8
:1006B00083380F0B2A6F8D940F0E9514956E2B397E
:1006C000006EF00E001600502A11016E00016EEF50
:1006D00003F08D9000D000D00000D2D701C02AF1E5
:1006E000010101AE02D00001F8D78D9028B18D80B4
:1006F00000D000D000008D9200D000D000008D947A
:1007000029392A6F0F0E2A172AC12BF10001A5DF04
:10071000010129510F0B2A6F2B6F00019EDF000C86
:100720000F0E9514956E8D908D928D94F80E9616F1
:100730000F0E0101246F00017CDF010E0101206F0B
:10074000205103080CE3030E2B6F000186DF050E1A
:100750000101246F00016DDF0101202BF1D7020E92
:100760002B6F00017ADF050E0101246F000161DFAC
:100770000101206B2051030812E3036A2051F2CFDC
:1007800021F1F29E000187DC010121BFF28E216F71
:10079000286B296F00019DDF0101202BEBD70001A1
:1007A000E5EF08F0030E93129450D70B1009946EE6
:1007B000F40E9516C69A200EC66E400EC76E959220
:1007C0008C8295908C80000C8B9A8B968A86010186
:1007D000209182B820810001E9EF08F0050E0101A7
:1007E0003E6F8A96010E3F6F3F5108080AE3D8908A
:1007F0003E3702E28B9A01D08B8A8B868B963F2BF9
:10080000F3D7010E3F6F3F5108080AE38B8682B889
:1008100002D0D89001D0D88040378B963F2BF3D7A9
:100820008A86000E40A1010E016E0001000C030E2D
:1008300001013C6F37C13BF13B51365D3A6F00011E
:10084000CDDF0152FDE08A96010E0101386F38516B
:1008500018080CE3D8903A373B373C3702E28B9AC2
:1008600001D08B8A8B868B96382BF1D7010E386F8F
:10087000385108080AE38B8682B802D0D89001D09C
:10088000D88039378B96382BF3D78A8639C101F057
:100890000001000C0101252D01D003D0400E266F70
:1008A00001D0266B010E245D262726518009276F73
:1008B000286B296F00010DDF8BEF04F0010123513C
:1008C0000C0A000105E0060A0FE0020A15E01BD041
:1008D0000101286B010E296F0001FBDE020E0101F0
:1008E000246F0001A6DE17D0010E0101246F020E55
:1008F000256F0001CFD70FD00101286B100E296F93
:100900000001E7DE08D0010E0101286F23C129F1A3
:100910000001DFDE00D0000C0900F55204E0F5CF45
:1009200023F1CCDFF9D7000C0900F55205E0F550B2
:100930009EA8FED7AD6EF8D7000C010137C13BF180
:100940003B51365D3A6F000149DF0152FDE0060E72
:100950000101396F8A96010E3D6F3D5108080AE387
:10096000D890393702E28B9A01D08B8A8B868B968E
:100970003D2BF3D78A8638C139F1020E3C6F8A9637
:10098000010E3D6F3D5120080DE3D89039373A37BD
:100990003B373C3702E28B9A01D08B8A8B868B9651
:1009A0003D2BF0D78A860001000C010124C103F021
:1009B0002351232BD8B4242B276F03C028F125C142
:1009C00029F103C037F1366F25C138F10001B5DFD9
:1009D00026C127F124C137F123C136F126C138F1F0
:1009E000ACDF000C0C0EF66E010EF76E95DF1E0EDE
:1009F000F66E010EF76E98DF0101226B216B22511A
:100A0000020810E303E1215127080CE322C137F16A
:100A100021C136F1386B000190DF0101212BD8B4E0
:100A2000222BEDD7376BC00E366F010E386F0001E9
:100A300084DF0101376BCD0E366F386B00017DDF2F
:100A40000101376BCE0E366F030E386F000175DF74
:100A50000101376BCF0E366F040E386F00016DDF6A
:100A60000101376BD00E366F050E386F000165DF60
:100A70000101376BD10E366F060E386F00015DDF56
:100A80000101376BD20E366F070E386F000155DF4C
:100A90000101246BD70E236F266B190E256F000101
:100AA00084DF020E0101246F1D0E236F130E266FCB
:100AB000880E256F000179DF020E0101246F1F0EE1
:100AC000236F130E266F880E256F00016EDF020E56
:100AD0000101376F210E366F550E386F00012DDF83
:100AE000360EF66E010EF76E1FDF560EF66E010E15
:100AF000F76E12DF140E0101236FFA0E246F00014E
:100B000098DD0101232FF9D7FF000001000C020E30
:100B10000101376F210E366F000189DE0150550843
:100B200001E060DFEAEF08F001012DC103F02C5174
:100B30002C2BD8B42D2B346F03C035F103C037F103
:100B4000366F000174DE01C030F101012DC103F0E8
:100B50002C512C2BD8B42D2B346F03C035F103C08E
:100B600037F1366F000163DE01C031F101012DC1A3
:100B700003F02C512C2BD8B42D2B346F03C035F13E
:100B800003C037F1366F000152DE01C032F12DC1D2
:100B900037F12CC136F14BDE01C033F101012EC11A
:100BA000E9FF2FC1EAFF30C1EFFF31C1ECFF32C1D5
:100BB000ECFF33C1ECFF0001000C830ED56E850EF7
:100BC000D76EED0ED66EF28AC00EF212ACEF08F0C0
:100BD000C950A7C1C9FFC730FEE3C9CF01F0000C5F
:100BE00095928C929CC19EF19CC1A7F10001F0DF0F
:100BF0000101A76B0001ECDF01C09DF195928C8291
:100C000001019DC101F00001000C95928C92FF0E34
:100C10000101A76F0001DCDF95928C826BEF07F07A
:100C200095928C920101A2514009A46FA76F000117
:100C3000CFDFA3C1A7F1CCDF95928C82000C9592F7
:100C40008C920101A151A009A36FA76F0001C0DF21
:100C5000A2C1A7F1BDDF95928C82000C95928C9277
:100C60000101A4518009A66FA76F0001B1DFA5C1E2
:100C7000A7F1AEDF95928C82000C1F0E0101A16FCF
:100C8000030EA26F0001DBDF010E0101A26F9F0EB8
:100C9000A16F010EA125E96E000EA221EA6EEFCF31
:100CA000A3F11F0EA46FA3C1A5F10001D7DF000CB3
:100CB00095928C9229C12BF129C1A7F1000188DFFF
:100CC0000101A76B000184DF0101A76B000180DF38
:100CD00001C02AF195928C8201012AC101F0000124
:100CE000000C020E0101A06F140E9F6F0001C5DF02
:100CF000140E0101A26F25C1A3F1000191DF010EC5
:100D00000101296F260EE96E29C1EAFFEFCF2AF112
:100D1000160EA26F2AC1A3F1000182DF010E0101AC
:100D2000296F260E286F010E2825E96E000E292155
:100D3000EA6EEFCF2AF1170EA26F2AC1A3F10001CC
:100D40006FDF030E0101A06F0A0E9F6F000195DF98
:100D50000A0E0101296F0001ABDF01C028F1000E6E
:100D6000010101B0010E000AD8B402D00001F0D791
:100D70000001000C020E0101A06F140E9F6F000114
:100D80007CDF140E0101A26F26C1A3F1000148DF30
:100D9000120E0101A26F010EA36F000141DF030ECD
:100DA0000101A06F0A0E9F6F000167DF0A0E0101AB
:100DB000296F00017DDF01C029F1000E010101B0A2
:100DC000010E000AD8B402D00001F0D7020EA06FC5
:100DD000140E9F6F000151DF120E0101A26FA36B71
:100DE00000011EDF180E0101296F000161DF01C043
:100DF00027F1190E0101296F00015ADF01C028F106
:100E0000010127C101F028C102F00001000C1F0EF2
:100E10000101A16F0C0EA26F000111DF0101266B11
:100E20000001A8DF02C024F101C023F1010121511A
:100E3000020804E1216B24B1212B0BD0249121B1B4
:100E40002481256B24C127F123C126F1000149DF4C
:100E50000101020EA06F9F6F00010FDF020E010162
:100E6000296F000125DF01C022F10101229121B18A
:100E70002281020EA26F22C1A3F10001D1DE010185
:100E8000215302E0150E01D0120E256F040EA26F41
:100E900025C1A3F10001C4DE1F0E0101A46F040EE1
:100EA000A56F0001DBDE34EF08F07CDC1D0E0101D4
:100EB0009C6F000195DE01C020F1010120A702D046
:100EC0000001F4D72051FF0A010BD8B402D0000171
:100ED000EDD700019AD6010E0101246F000119EC33
:100EE00003F04D6A5680536A526A080E0101A26FE0
:100EF000A36B000195DE090E0101A26FA36B000137
:100F00008FDE0C0E0101A26FF70EA36F000188DEC9
:100F10000D0E0101A26F1B0EA36F000181DE0A0EF0
:100F20000101A26FF70EA36F00017ADE0B0E010123
:100F3000A26F1B0EA36F000173DE040E0101A26FEE
:100F4000F80EA36F00016CDE050E0101A26F1B0EEF
:100F5000A36F000165DE020E0101A06F9F6B00010F
:100F60008CDE0101A26B0D0EA36F000159DE020E93
:100F70000101A26F320EA36F000152DE030E0101C8
:100F8000A26F400EA36F00014BDE090E0101A26F9C
:100F90003F0EA36F000144DE060E0101A26F120E88
:100FA000A36F00013DDE070E0101A26F0C0EA36FBF
:100FB000000136DE0A0E0101A26FEE0EA36F0001E2
:100FC0002FDE0B0E0101A26F050EA36F000128DEBC
:100FD000030E0101A06F040E9F6F00014EDE040E90
:100FE0000101A26F1AC0A3F100011ADE050E010172
:100FF000A26F1BC0A3F1000113DE020E0101A26F5C
:101000001CC0A3F100010CDE030E0101A26F1DC084
:10101000A3F1000105DE0101A26B1EC0A3F10001D6
:10102000FFDD010E0101A26F1FC0A3F10001F8DD79
:10103000120E01019C6F0001D3DD01C057F0100EAC
:101040000101256F010E276F266B00014ADE140E89
:101050000101256F040E276F720E266F000141DE1D
:101060000101216B0001D3D61F0E0101A46F040EF4
:10107000A56F0001F3DDADEF08F05692FF0EA36FF0
:10108000A46FA56FA66FA76FA86FAC6BAB6BAA6BB5
:10109000A96BAEEF08F001013351160DF350356B1B
:1010A000346F0C0E3425016E000E3521036E015095
:1010B000590FE96E000E0320EA6EEC6AED52EF6AFA
:1010C0003351160DF350356B346F060E3427000E76
:1010D0003523590E3425E96E000E3521EA6EEE52A5
:1010E000EE52EC6AED52EF6AED52EF6AED52EF6AA2
:1010F0003351160DF350356B346F150E3427000E37
:101100003523590E3425E96E000E3521EA6EEF9035
:101110000001000C0101206B2051010807E320C1F0
:1011200033F10001B8DF0101202BF6D70001AFEF4A
:1011300008F08551080801E10BD08A3D01D003D0A9
:101140008AC033F1A8DFFF0E8A6F856BA06B869192
:10115000000CAD6B2C8231D5A8D68FD7DBD7E9DF59
:1011600047EF09F0D190FF0E926E936E946E956EDC
:10117000968096829684070EB46E9550956E965022
:10118000966E100E006E002EFED70000B450A19C8B
:10119000C190C182C184C186C19CC28CC28EC19ED5
:1011A000C280000E016EC250C70B0110C26E949C2B
:1011B000929A898A93988A88939A8A8A928893962F
:1011C000949A9488949690EF03F0D2EC03F0E4EFB5
:1011D00003F09DD401012D6BC50E2C6F2F6B160EE5
:1011E0002E6F0001A1DC01012D6BC90E2C6F2F6B3E
:1011F000200E2E6F000198DC01012D6BC10E2C6FAB
:101200002F6B240E2E6F00018FDC0101376BCD0E8A
:10121000366F000117EC04F001C01AF00101376BC2
:10122000CE0E366F000117EC04F001C01BF0010177
:10123000376BCF0E366F000117EC04F001C01CF0C5
:101240000101376BD00E366F000117EC04F001C0BE
:101250001DF00101376BD10E366F000117EC04F061
:1012600001C01EF00101376BD20E366F000117EC82
:1012700004F001C01FF00101376BC00E366F000192
:1012800017EC04F0015202E1080E856F62D732EFCD
:101290002EF00900F5509EA8FED7AD6E0101312F4A
:1012A00001D002D00001F5D70001000C010132BFCE
:1012B00010D00F0E006E313900160A0E005C03E2EA
:1012C000300E002602D03251002600509EA8FED7D4
:1012D000AD6E0F0E31170A0E315D02E2300E02D0F4
:1012E000329F3251312731519EA8FED7AD6E000199
:1012F000000C01013851016A375D03E237C100F08B
:101300000CD0006A080E396F373700363851005C50
:10131000D8B0006E0136392FF7D70001000C01500C
:101320002CC137F1640E0101386F0001E2DF00C00B
:101330002CF10150300E08E101012DA30ED02DB784
:101340000CD02DB9200E04D001012D972D992D819F
:10135000012601509EA8FED7AD6E2CC137F10A0EB2
:10136000386F0001C6DF00C02CF10150300E08E1DB
:1013700001012DB70BD02DA109D02DB9200E0001F0
:10138000012601509EA8FED7AD6E0101300E2C271C
:101390002C519EA8FED7AD6E0001000C010126C1A4
:1013A000E9FF27C1EAFFEFCF28F1010E2625E96EFC
:1013B000000E2721EA6EEFCF29F1020E2625E96EF5
:1013C000000E2721EA6EEFCF2AF1030E2625E96EE3
:1013D000000E2721EA6EEFCF2BF128C12CF11B0E56
:1013E0002D6F00019CDF2E0E9EA8FED7AD6E29C189
:1013F0002CF11B0E01012D6F000191DF2E0E9EA816
:10140000FED7AD6E2AC12CF11B0E01012D6F00011C
:1014100086DF2E0E9EA8FED7AD6E2BC12CF11B0EC3
:1014200001012D6F00017BDF000C010127C103F0DA
:101430002651262BD8B4272B2A6F03C02BF103C0CB
:1014400037F1366F000117EC04F001C028F127C115
:1014500037F126C136F117EC04F001C029F1010182
:1014600028C101F029C102F00001000CEACF30F1DF
:10147000E9CF2FF101012939F0092B6F2B27E20F5A
:101480002C6F320F2E6F29510F0B2C272C272E2754
:10149000E90F2D6F2D272D2728390F0B2D272E27EC
:1014A0002D372E372E1F2E3728510F0B2E272B3777
:1014B000070E2A6F0A0E2D072E27FDE32C072D2776
:1014C000FDE32B072C27FDE32A072B27FDE3010E65
:1014D000EA6E2A0EE96E070E2F152F9DE9262E0EB5
:1014E000E95CD8B42F8DEF50006E08E12FBD06D017
:1014F0002FB90CD02FB702D0200E03D02F872F99F1
:10150000300E002600509EA8FED7AD6EEE502FADD7
:10151000E6D70001000C010121812E0EF66E030EAC
:10152000F76E100E316F0001B4DE1AC031F1370EC4
:101530000101326F0001BADE3A0E9EA8FED7AD6EF1
:101540001BC031F1370E0101326F0001AFDE3A0EE0
:101550009EA8FED7AD6E1CC031F1370E0101326F6F
:101560000001A4DE3A0E9EA8FED7AD6E1DC031F17B
:10157000370E0101326F000199DE3A0E9EA8FED7A8
:10158000AD6E1EC031F1370E0101326F00018EDEEB
:101590003A0E9EA8FED7AD6E1FC031F1370E010185
:1015A000326F000183DE500EF66E030EF76E94EC80
:1015B00004F00101376BC00E366F000117EC04F028
:1015C00001521FE0620EF66E030EF76E94EC04F00B
:1015D000680EF66E030EF76E94EC04F086A107D049
:1015E000780EF66E030EF76E94EC04F009D07E0EC2
:1015F000F66E030EF76E94EC04F0010121910001E8
:1016000006D0840EF66E030EF76E94EC04F0010122
:1016100021A126D08A0EF66E030EF76E000194EC1F
:1016200004F00101276B160E266F0001B7DE9A0E3B
:10163000F66E030EF76E94EC04F00101276B240E96
:10164000266F0001ABDEA60EF66E030EF76E94EC6D
:1016500004F00101276B200E266F00019FDE0101BF
:10166000020E2D6F190E2C6F010E2F6F220E2E6F92
:10167000000194EC05F0B20EF66E030EF76E94ECDA
:1016800004F0010E0101276F220E266F000186DE95
:10169000020E0101276F1D0E266F0001C6DE02C07B
:1016A00027F101C026F1CA0EF66E030EF76E180E72
:1016B0000101316F0001EDDD100EE96E27C129F146
:1016C00026C128F1D3DE020E0101276F1F0E266FFF
:1016D0000001ABDE02C027F101C026F1E60EF66E76
:1016E000030EF76E130E0101316F0001D2DD100EF3
:1016F000E96E27C129F126C128F1B8DE000C340EAD
:10170000F66E050EF76E94EC04F04C0EF66E050EB8
:10171000F76E94EC04F06A0EF66E050EF76E94EC1C
:1017200004F07E0EF66E050EF76E94EC04F0000CDD
:10173000F29A4FC036F14EC035F1F28A010135C13F
:1017400001F036C102F00001000C010E0101266F0C
:101750000001BAEC06F001C026F1000E010101B44F
:10176000010E016E0001000C0900EACF22F1E9CF61
:1017700021F1F5CF23F15EEC04F022C1EAFF21C193
:10178000E9FF0101202F01D002D00001EDD70001B7
:10179000A3EF0CF0010121BF12D00F0E006E203913
:1017A00000160A0E005C03E2300E002602D0215122
:1017B000002600C023F100015EEC04F001010F0ED1
:1017C00020170A0E205D02E2300E02D0219F215127
:1017D000202720C123F100015EEC04F0AAEF0CF0F9
:1017E000015020C137F1640E0101386F000181DD25
:1017F00000C020F10150300E08E1010121A310D0FA
:1018000021B70ED021B9200E04D0010121972199D2
:101810002181012601C023F100015EEC04F00101E9
:1018200020C137F10A0E386F000163DD00C020F1DE
:101830000150300E08E1010121B70BD021A109D0E0
:1018400021B9200E0001012601C023F15EEC04F055
:101850000101300E202720C123F100015EEC04F0CD
:10186000000C66DF02C021F101C020F1010102502D
:10187000065D04E305E10551205D02E3000E01D0A1
:10188000010E036A031016E0FF0ED8800555206F85
:10189000FF0E0655216F00014BDF0150010120278B
:1018A00002502123010E2025016E000E2121036E1E
:1018B00001500ED000013CDF02C021F101C020F137
:1018C00001010551015C006E06510258036E005083
:1018D0000508D8B08FD000012BDF02C006F101C08F
:1018E00005F133DF015207E1AA0EF66E050EF76E21
:1018F0008CEC04F07ED00101376BC00E366F000116
:1019000017EC04F0015209E086B107D0B80EF66E6C
:10191000050EF76E8CEC04F06CD00101013D09D08E
:10192000C80EF66E050EF76E00018CEC04F04DD07B
:10193000010104A111D0D40EF66E050EF76E090E4A
:10194000206F000111D702C120F1370E0101216F74
:10195000000120D73AD001010C0E236F00015EEC8C
:1019600004F016C020F11B0E0101216F000138DFC9
:101970002E0E0101236F00015EEC04F017C020F170
:101980001B0E0101216F00012BDF2E0E0101236FC1
:1019900000015EEC04F018C020F11B0E0101216F64
:1019A00000011EDF2E0E0101236F00015EEC04F02A
:1019B00019C020F11B0E0101216F000111DF0A0E79
:1019C0000101236F00015EEC04F0010100510308E6
:1019D00009E1E00EF66E050EF76E00018CEC04F0E6
:1019E00008D00101F00EF66E050EF76E00018CECCA
:1019F00004F001010001000C000EF66E060EF76EF9
:101A000094EC04F001010491000185DD78DE29DF0A
:101A100034EF2EF0FFC0EAFFFEC0E9FF010138C13C
:101A2000EFFFE92AD8B4EA2AEF6A0001FE2BD8B406
:101A3000FF2B000C015035C137F1640E0101386FE6
:101A4000000157DC00C035F10150300E08E1010102
:101A500036A30FD036B70DD036B9200E04D0010111
:101A6000369736993681012601C038F10001D2DF60
:101A7000010135C137F10A0E386F00013ADC00C0B0
:101A800035F10150300E08E1010136B70AD036A118
:101A900008D036B9200E0001012601C038F1BADFA6
:101AA0000101300E352735C138F10001B3DFDDEF1C
:101AB0000EF09EA8FED7AD6E000C0101386B370703
:101AC00036C103F035C1E9FF36C1EAFFEFCF39F186
:101AD000395309E039510001ECDF0101382B352B76
:101AE000D8B4362BEDD79EAAFED7AECF39F13951F7
:101AF000080812E138530FE038073551D8B43607DB
:101B0000350739510001D5DF200ED3DF01013951EE
:101B10000001CFDF010119D039511F0816E23951F8
:101B20007E0813E33751385D10E236C103F03551BA
:101B3000352BD8B4362BE96E03C0EAFF39C1EFFF6D
:101B4000382B39510001B5DF010139510D08CBE1C6
:101B500035C1E9FF36C1EAFFEF6A0001000C01015F
:101B60003E514019800B426F3EAF05D03D1F3E1FD6
:101B70003D2BD8B43E2B40AF05D03F1F401F3F2B1D
:101B8000D8B4402B3D513F03F3CF01F0F4CF00F028
:101B90004003F35000263E513F03F3500020026EF5
:101BA00042AF05D0011E021E012AD8B4022A00014C
:101BB0004DEF0EF001013B6B396B0A0E3A6F386B3B
:101BC000376B3551361104E1000E016E026EE8D01C
:101BD0003B513B2B036A3525E96E36510320EA6EF3
:101BE000EFCF3CF13C512D080DE1010E396F3B5117
:101BF0003B2B036A3525E96E36510320EA6EEFCFA1
:101C00003CF10DD03C512B080AE13B513B2B036AC0
:101C10003525E96E36510320EA6EEFCF3CF13C5199
:101C20002F08D8B0AFD03C513908D8A0ABD03C5128
:101C3000300821E1036A3B513525E96E3651032016
:101C4000EA6EEF5078080AE0036A3B513525E96EE9
:101C500036510320EA6EEF5058080DE1100E3A6F2E
:101C60003B2B3B513B2B036A3525E96E3651032054
:101C7000EA6EEFCF3CF13A510A0823E13C512F08BC
:101C80001FE23C5139081CE33E6B0A0E3D6F38C120
:101C900040F137C13FF1000162D7300E01013C5DD8
:101CA0000124376F000E0220386F3B513B2B036A33
:101CB0003525E96E36510320EA6EEFCF3CF1DED7D1
:101CC00061D03A5110085EE13C51600806E23C5197
:101CD0007A0803E33C51DF0B01D03C513C6F3C518F
:101CE0002F0803E23C51390806E23C5140084AE221
:101CF0003C51460847E33C512F0819E23C51390852
:101D000016E337353D6F38353E6F3D373E373D374B
:101D10003E373D373E37F00E3D17300E3C5D3D25DA
:101D2000016E000E3E2101C037F1386F16D03735F5
:101D30003D6F38353E6F3D373E373D373E373D3797
:101D40003E37F00E3D17410E3C5D0A0F3D25016EFA
:101D5000000E3E2101C037F1386F3B513B2B036A27
:101D60003525E96E36510320EA6EEF503C6F60086E
:101D700006E23C517A0803E33C51DF0B01D03C51B1
:101D80003C6FADD73A510A0807E1392D05D0371F0E
:101D9000381F372BD8B4382B37C101F038C102F0C7
:101DA0000001000C010EFF6F300EFE6F2FC135F1E8
:101DB0001B0E0101366F00013DD6010E0101366F89
:101DC000300E356F040E376F000177DE010E010112
:101DD000366F300E356F0001EDDE01C034F10101C8
:101DE00034C101F000018BEF0FF001012EC1E9FFBA
:101DF0002FC1EAFFEFCF00F0ECCF01F0ECCF02F003
:101E0000ECCF03F003C033F102C032F101C031F175
:101E100000C030F12DC103F02C512C2BD8B42D2B48
:101E2000346F03C035F103C037F1366F30C138F17C
:101E300000019DEC04F001012DC103F02C512C2B6D
:101E4000D8B42D2B346F03C035F103C037F1366F92
:101E500031C138F100019DEC04F001012DC103F006
:101E60002C512C2BD8B42D2B346F03C035F103C06B
:101E700037F1366F32C138F100019DEC04F02DC10D
:101E800037F12CC136F133C138F19DEC04F0A6EFE7
:101E90000FF026C12DF125C12CF1010E01012F6F8C
:101EA000270E2E6F000194EC05F001012B6B2B51D6
:101EB000030842E3FE0EF66E030EF76E060E316F58
:101EC000000149EC09F02BC12CF11B0E01012D6F13
:101ED00000018FEC09F03A0E9EA8FED7AD6E200EE1
:101EE0009EA8FED7AD6E036A01012B51270F016E2C
:101EF000010E032201C02CF103C02DF1036A2B5106
:101F0000270FE96E010E0320EA6EEFCF2EF12EC1EE
:101F10002FF1000147D72DC1EAFF2CC1E9FF01C015
:101F2000EFFF0D0E9EA8FED7AD6E0A0E9EA8FED73F
:101F3000AD6E01012B2BBBD726C12DF125C12CF194
:101F4000010E2F6F270E2E6F00014FD7000CEACF26
:101F500037F1E9CF36F101013039F009326F32271C
:101F6000E20F336F320F356F30510F0B33273327AA
:101F70003527E90F346F342734272F390F0B3427D7
:101F8000352734373537351F35372F510F0B352768
:101F90003237070E316F0A0E34073527FDE333075A
:101FA0003427FDE332073327FDE331073227FDE312
:101FB000010EEA6E310EE96E070E3615369DE926E2
:101FC000350EE95CD8B4368DEF50006E08E136BDB1
:101FD00006D036B915D036B702D0200E03D03687DA
:101FE0003699300E0026EACF30F1E9CF2FF100C04C
:101FF00038F100010FDD30C1EAFF2FC1E9FF010117
:10200000EE5036ADDDD7000111EF10F0010EFF6F7D
:10201000270EFE6F100EE96E26C130F125C12FF19B
:1020200096D7010E0101366F270E356F060E376FFA
:10203000000143DD010E0101366F270E356F0001EF
:10204000B9DD02C02EF101C02DF101012DC101F059
:102050002EC102F00001000C8E0EF66E040EF76E1B
:1020600094EC04F0020E0101266F190E256F000199
:1020700010DFA80EF66E040EF76E94EC04F0020E5C
:102080000101276F1D0E266F000115EC0AF002C03A
:1020900024F101C023F102C026F101C025F1B6DF11
:1020A00002C022F101C021F1020E0101246F1D0EB8
:1020B000236F22C126F121C125F10001D5EC04F0E6
:1020C0000D0E9EA8FED7AD6E0A0E9EA8FED7AD6E71
:1020D000E00EF66E040EF76E94EC04F0020E0101B1
:1020E000276F1F0E266F000115EC0AF002C024F1C5
:1020F00001C023F102C026F101C025F187DF02C033
:1021000022F101C021F1020E0101246F1F0E236F85
:1021100022C126F121C125F10001D5EC04F00D0EFC
:102120009EA8FED7AD6E0A0E9EA8FED7AD6E120E0B
:10213000F66E050EF76E94EC04F0FF0076EF16F0E5
:10214000000E0101345F7C0E355B3531036E343196
:10215000026E033202320332023202C037F13451CE
:10216000070B386F37513227000E332332C1E9FF96
:1021700033C1EAFFEFCF37F137C100F03851016EBC
:1021800004E0D8900032012EFCD7399100B039819B
:1021900036530CE0010E006E3851016E04E0D89009
:1021A0000036012EFCD7005037130CD0010E006E04
:1021B0003851016E04E0D8900036012EFCD7005053
:1021C000FF0A371732C1E9FF33C1EAFF37C1EFFF1A
:1021D000000E39B1010E016E0001000C000E01016C
:1021E000335F7C0E345B3431036E3331026E033265
:1021F00002320332023202C035F13351070B366F1F
:1022000035513127000E322331C1E9FF32C1EAFFD7
:10221000EFCF35F135C100F03651016E04E0D890B2
:102220000032012EFCD7000E00B0010E016E00013D
:10223000000C0900F55205E0F5CF38F10AEC0DF07D
:10224000F8D73FEF11F0000E0101315F7C0E325BD9
:102250003231036E3131026E033202320332023206
:1022600002C035F13151070B366F34C1FFF033C175
:10227000FEF0660EF66E010EF76E0001DAD7410E23
:1022800001013527300E3627040E3325E96E000E86
:102290003421EA6E35C1EFFF050E3325E96E000EDD
:1022A0003421EA6E36C1EFFF060E3325E96E000ECB
:1022B0003421EA6EEF6A0001000CEF5208E0EF50A3
:1022C0009EA8FED7AD6EE92AD8B4EA2AF6D7000C4C
:1022D0000101276B0F0E336F890E326F24C135F168
:1022E00023C134F1366B00012BDF0101309501B0C1
:1022F00030850F0E336F890E326F26C135F125C13F
:1023000034F1366B00011CDF0101309701B03087DA
:102310000F0E336F920E326F24C135F123C134F1A9
:10232000366B00010DDF0101309101B030810F0EDD
:10233000336F920E326F26C135F125C134F1010E93
:10234000366F0001FDDE0101309301B03083A60E2F
:10235000006E002EFED700000F0E326F800E316F20
:1023600026C134F125C133F1000138DF015202E00A
:10237000010127810F0E0101336F890E326F24C1D5
:1023800035F123C134F1010E366F0001D9DEA60EFE
:10239000006E002EFED700000F0E0101326F800E7E
:1023A000316F26C134F125C133F1000117DF01522D
:1023B00002E1010127830F0E0101336F890E326F95
:1023C00026C135F125C134F1366B0001B9DE0F0E9F
:1023D0000101336F920E326F24C135F123C134F104
:1023E000010E366F0001ACDE0F0E0101336F920E4D
:1023F000326F26C135F125C134F1366B0001A0DE04
:10240000A60E006E002EFED700000F0E0101326FE7
:10241000800E316F24C134F123C133F10001DEDEBF
:10242000015202E0010127850F0E0101336F890E71
:10243000326F26C135F125C134F1010E366F00012E
:102440007FDEA60E006E002EFED700000F0E0101EB
:10245000326F800E316F24C134F123C133F100019A
:10246000BDDE015202E101012787000E010130B5F6
:10247000010E316F0F0E336F890E326F24C135F1AB
:1024800023C134F131C136F100015ADE000E0101E1
:1024900030B7010E316F0F0E336F890E326F26C1C8
:1024A00035F125C134F131C136F1000149DE000EAC
:1024B000010130B1010E316F0F0E336F920E326F8A
:1024C00024C135F123C134F131C136F1000138DEC8
:1024D000000E010130B3010E316F0F0E336F920EFB
:1024E000326F26C135F125C134F131C136F1000119
:1024F00027DE0101275359E024C132F123C131F114
:10250000010E346F280E336F00019DDE010EEA6E5E
:10251000280EE96ED2DE6E0EF66E010EF76E050E17
:102520000101316F000149EC09F026C132F125C1EA
:1025300031F1010E0101346F280E336F000183DE8B
:10254000010EEA6E280EE96EB8DE200E9EA8FED7B8
:10255000AD6E0101275317E0740EF66E010EF76E93
:10256000060E316F000149EC09F027C131F1370E39
:102570000101326F000156EC09F05D0E9EA8FED7F6
:10258000AD6E0AD001014F0E9EA8FED7AD6E4B0E68
:102590009EA8FED7AD6E00010D0E9EA8FED7AD6EB3
:1025A0000A0E9EA8FED7AD6E0101275302E1000E70
:1025B00001D0010E016E0001000C01012191219357
:1025C00021957E0EF66E010EF76E000194EC04F07C
:1025D00095928C92030E0101A06F040E9F6F000173
:1025E0003DEC06F0040E0101A26F150EA36F000171
:1025F00010EC06F0050E0101A26F260EA36F00017C
:1026000010EC06F0060E0101A26F370EA36F000159
:1026100010EC06F0050E0101296F000158EC06F0E0
:1026200001C022F101010150260801E021819592AB
:102630008C8221A109D0920EF66E010EF76E000178
:1026400094EC04F008D00101980EF66E010EF76EBE
:10265000000194EC04F0130E0101376F880E366F01
:10266000550E386F00019DEC04F0130E0101376F19
:10267000890E366F660E386F00019DEC04F0130E64
:102680000101376F8A0E366F770E386F00019DECAF
:1026900004F09E0EF66E010EF76E94EC04F0130E2D
:1026A0000101376F890E366F000117EC04F00150FD
:1026B000660807E1B00EF66E010EF76E94EC04F0BA
:1026C00008D0B60EF66E010EF76E94EC04F0010120
:1026D0002183010121A10AD021A308D0C00EF66EEA
:1026E000010EF76E000194EC04F00101E40EF66EA9
:1026F000010EF76E000194EC04F0898A8A888A8AB8
:1027000080A80AD0897A8A788A7AFA0E0101246F21
:10271000000119EC03F0F4D7220EF66E020EF76EEC
:1027200094EC04F0000E016EC250C70B0110C26E93
:10273000010E0101246F000119EC03F0C284C2B440
:10274000FED7C450F70801E3F9D74A0EF66E020E21
:10275000F76E94EC04F0C284C2B4FED7C4500808EB
:1027600001E2F9D7720EF66E020EF76E94EC04F0E9
:10277000C180C182C184C196C69A010EC66E000E88
:10278000C76E860EF66E020EF76E94EC04F09EAAEB
:10279000FED7AE500101226F600806E222517A088E
:1027A00003E32251DF0B01D02251540803E0000162
:1027B000EED70101B60EF66E020EF76E000194EC34
:1027C00004F0000E010121B5010E226F7C0E246F72
:1027D0000F0E236F7C0E266F0E0E256F000178DD25
:1027E0000101225101102195E8B02185000E21B58B
:1027F000010E226F7C0E246F0D0E236F7C0E266F50
:102800000C0E256F000164DD01012251011021959C
:10281000E8B02185000E21B5010E226F7C0E246FD9
:102820000B0E236F7C0E266F0A0E256F000150DD04
:102830000101225101102195E8B02185000E21B53A
:10284000010E226F7C0E246F090E236F7C0E266F03
:10285000080E256F00013CDD010122510110219578
:10286000E8B02185000E21B5010E226F7C0E246F89
:102870001F0E236F7C0E266F1E0E256F000128DDB4
:102880000101225101102195E8B02185000E21B5EA
:10289000010E226F7C0E246F1D0E236F7C0E266F9F
:1028A0001C0E256F000114DD01012251011021953C
:1028B000E8B02185000E21B5010E226F7C0E246F39
:1028C0001B0E236F7C0E266F1A0E256F000100DD94
:1028D0000101225101102195E8B02185000E21B59A
:1028E000010E226F7C0E246F190E236F7C0E266F53
:1028F000180E256F0001ECDC010122510110219519
:10290000E8B02185000E21B5010E226F7C0E246FE8
:10291000150E236F7C0E266F140E256F0001D8DC78
:102920000101225101102195E8B02185000E21B549
:10293000010E226F7C0E246F130E236F7C0E266F08
:10294000120E256F0001C4DC0101225101102195F6
:10295000E8B02185000E21B5010E226F7C0E246F98
:10296000110E236F7C0E266F100E256F0001B0DC58
:102970000101225101102195E8B02185000E21B5F9
:10298000010E226F7C0E246F050E236F7C0E266FC6
:10299000040E256F00019CDC0101225101102195DC
:1029A000E8B02185000E21B5010E226F7C0E246F48
:1029B000030E236F7C0E266F020E256F000188DC4C
:1029C0000101225101102195E8B02185000E21B5A9
:1029D000010E226F7C0E246F010E236F7C0E266F7A
:1029E000220E256F000174DC010122510110219596
:1029F000E8B02185000E21B5010E226F7C0E246FF8
:102A0000210E236F7C0E266F200E256F000160DCE7
:102A10000101225101102195E8B0218521A509D09D
:102A2000D00EF66E020EF76E000194EC04F008D0A2
:102A30000101E60EF66E020EF76E000194EC04F052
:102A4000EC0EF66E020EF76E94EC04F09EAAFED722
:102A5000AE500101226F600806E222517A0803E3BA
:102A60002251DF0B01D02251540803E00001EED7C0
:102A70000101180EF66E030EF76E000194EC04F0DF
:102A8000FF0076EF16F001012EBF12D00F0E006E80
:102A90002D3900160A0E005C03E2300E002602D02B
:102AA0002E51002600C038F100010AEC0DF00101A2
:102AB0000F0E2D170A0E2D5D02E2300E02D02E9F52
:102AC0002E512D272DC138F100010AEC0DF07AEFBF
:102AD00015F0300E0101276F780E286F010E0001EE
:102AE000FF6F290EFE6F26C12DF1370E01012E6FEB
:102AF0000001C9D7010E0101366F290E356F030E93
:102B0000376F00015DEC0DF0010E0101366F270EED
:102B1000356F0001DAEC0DF001C02CF101012CC180
:102B200001F00001C6EF15F00A0EF66E040EF76E06
:102B300094EC04F00101246BCD0E236F226B225123
:102B400005083BE31A0EF66E040EF76E080E316FA1
:102B5000000149EC09F022C12CF11B0E01012D6F7F
:102B600000018FEC09F03A0E9EA8FED7AD6E200E44
:102B70009EA8FED7AD6E24C137F123C136F117EC04
:102B800004F001C025F101C026F1A3D701C021F155
:102B9000010124C103F02351232BD8B4242B256F2A
:102BA00003C026F103C037F1366F21C138F10001AF
:102BB0009DEC04F00101222BC2D7280EF66E040E04
:102BC000F76E000194EC04F09EAAFED7AECF21F17F
:102BD00001012151600806E221517A0803E32151E5
:102BE000DF0B01D02151216F2151590806E02151FD
:102BF0004E08D8B402D00001E7D72151000159ECAA
:102C00000DF0010121514E0830E1376BC00E366FD7
:102C1000386B00019DEC04F03E0EF66E040EF76E6C
:102C200094EC04F00101266BC50E256F000149EC00
:102C30000FF0500EF66E040EF76E94EC04F00101E6
:102C4000266BC10E256F000149EC0FF05E0EF66E8B
:102C5000040EF76E94EC04F00101266BC90E256F8B
:102C6000000149EC0FF009D00101376BC00E366F3F
:102C7000010E386F00019DEC04F06C0EF66E040E30
:102C8000F76E94EC04F0FF0076EF16F09EAAFED7E4
:102C9000AECF20F101012051600806E220517A08F0
:102CA00003E32051DF0B01D02051206F2051550A42
:102CB000000109E0010A0AE0100A0AE0170A0BE025
:102CC000090A0BE013D02CEF10F010D076D40ED000
:102CD0008BEC0AF00BD028D709D0F2EC04F0960E5A
:102CE000F66E050EF76E94EC04F000D07FEC0BF05E
:102CF00047EF2EF056A001D032D05680010E525C24
:102D00000101516F000E5358526F52511A0809E2D7
:102D1000FF0A03E15151F70804E21B0E526FF70E50
:102D2000516F1E0EA46F400EA56F00012EEC06F031
:102D30000101A06B0C0E9F6F00013DEC06F00C0E24
:102D40000101A26F51C1A3F1000110EC06F00D0EBC
:102D50000101A26F52C1A3F1000110EC06F0000CBA
:102D600001018D6B8E6B95928C923A0EA76F0001CC
:102D7000E8EC05F001018E518C5D1CE303E18B5101
:102D80008D5D18E28AC103F089C18FF18AC190F18B
:102D9000A76B0001E8EC05F090C1EAFF8FC1E9FFE5
:102DA00001C0EFFF0101892BD8B48A2B8D2BD8B439
:102DB0008E2BE1D795928C828DC101F08EC102F0ED
:102DC0000001000C9DC19EF19CC19FF101019EC1BB
:102DD00001F09FC102F00001000C010E0101A06F83
:102DE000190E9F6F00013DEC06F0190E01019C6F5A
:102DF0000001F0EC05F001C03EF101013E5303E19A
:102E0000000E016E82D056B006D0000173DF000EB6
:102E1000016E01017AD053C055F052C054F0A06B3E
:102E20009F6B00013DEC06F00101A26B52C0A3F1C3
:102E3000000110EC06F0010E0101A26F53C0A3F1D6
:102E4000000110EC06F0010E01013F6F2A0E3FC198
:102E50008AF1896F8C6B140E8B6F000181DF3DC18D
:102E60009DF13CC19CF1AEDF02C03DF101C03CF1DF
:102E700001012B511A0805E2FF0A19E12A51F7084E
:102E800016E3010E3F6F2A0EE96E3FC1EAFFEFB075
:102E90000ED02FBF0CD02EB90AD02D51040805E258
:102EA000FF0A05E12C51EE0802E32EBF01D0FF001E
:102EB0002BC153F02AC152F026C13EF127C13FF188
:102EC00027C1EAFF26C1E9FF010EE26E360EE16E70
:102ED000060E016EE6CFEEFF012EFCD728C1E9FFFA
:102EE00029C1EAFFFF0EEF6E3D5108080BE13C538C
:102EF00003E03C51060806E128C1E9FF29C1EAFFC9
:102F00003CC1EFFF5690010E016E0001B2EF2AF0B6
:102F1000010151C101F052C103F051C153F152C13D
:102F200054F151C1E9FF52C1EAFFECCF56F1ED5225
:102F3000EFCF55F156C19DF155C19CF1000142DF23
:102F400054C1EAFF53C1E9FF02C0ECFFED5201C0DA
:102F5000EFFF020E01015125016E000E5221036E9A
:102F600001C053F1546F020E5125E96E000E52213B
:102F7000EA6EECCF56F1ED52EFCF55F156C19DF10F
:102F800055C19CF100011EDF54C1EAFF53C1E9FFA6
:102F900002C0ECFFED5201C0EFFF060E010151250A
:102FA000016E000E5221036E01C053F1546F060EE4
:102FB0005125E96E000E5221EA6EECCF56F1ED522A
:102FC000EFCF55F156C19DF155C19CF10001FADEDC
:102FD00054C1EAFF53C1E9FF02C0ECFFED5201C04A
:102FE000EFFF000C010E01018A6F350E896F8C6BAB
:102FF0001C0E8B6F0001B4DE7DDE010E0101526FED
:10300000350E516F000184DF0101352D08D0365394
:1030100006E13951060803E13A51040803E0000EC5
:10302000016E4ED03B51020808E13C5306E133C12A
:10303000E9FF34C1EAFFEF6A14D03B2D09D03C53BD
:1030400007E133C1E9FF34C1EAFF010EEF6E09D099
:1030500033C1E9FF34C1EAFF020EEF6E000E016ECC
:103060002FD016504D5D29E117504E5D26E11850C6
:103070004F5D23E11950505D20E131C1E9FF32C1BC
:10308000EAFF010EE26E3D0EE16E060E016EE6CF26
:10309000EEFF012EFCD7060E3125E96E000E32211F
:1030A000EA6E43C1EFFF44C1ECFF45C1ECFF46C1EE
:1030B000ECFF010E016E04D003D0000E016E00D0B3
:1030C000000155EF1BF01F0E01019C6F0001F0EC99
:1030D00005F001C07CF1000E010101B6010E000AED
:1030E00002E1000E01D0FF0E016E00D00001000CC5
:1030F00096C14DF0070E010197271C0E9823A06B77
:10310000020E9F6F00013DEC06F0010E01019A6F67
:10311000970EE96E9AC1EAFFEFCF9BF1A26B9BC1BC
:10312000A3F1000110EC06F0010E01019A6F970E59
:10313000996F010E9925E96E000E9A21EA6EEFCF84
:103140009BF1010EA26F9BC1A3F1000110EC06F0F0
:10315000010E01019A6F970EE96E9AC1EAFFEFCF57
:103160009BF1020EA26F9BC1A3F1000110EC06F0CF
:10317000010E01019A6F970E996F010E9925E96E64
:10318000000E9A21EA6EEFCF9BF1030EA26F9BC156
:10319000A3F1000110EC06F0000C95928C927A0ECF
:1031A0000101A76F0001E8EC05F0A0C1A7F1E8EC70
:1031B00005F095928C82000C95928C927A0E01010A
:1031C000A76F0001E8EC05F00101A4C103F0A351D1
:1031D000D8B4A407A307031012E0A2C103F0A1C151
:1031E000E9FFA2C1EAFFEFCFA5F1A5C1A7F1000158
:1031F000E8EC05F00101A12BD8B4A22BE6D79592FB
:103200008C820001000C0101A06B020E9F6F000177
:103210003DEC06F0020E0101A26FF80EA36F000153
:1032200010EC06F0030E0101A26F1B0EA36F00014C
:1032300010EC06F0060E01019D271C0E9E23010EC8
:10324000A06F9D0EE96EA0C1EAFFEFCFA1F1060EBF
:10325000A26FA1C1A3F1000110EC06F0010E010163
:10326000A06F9D0E9F6F010E9F25E96E000EA0219D
:10327000EA6EEFCFA1F1070EA26FA1C1A3F1000189
:1032800010EC06F00101A06B000187DF9BC1A2F1E9
:103290009AC1A1F10101A46B060EA36F00018CDF9E
:1032A0000101A06B1A0EA0C1A2F1A16FA46B060EC2
:1032B000A36F000181DF080E0101A06F00016DDF27
:1032C00001019C5302E1000E01D0060EA06F000127
:1032D00064DF000C1C0E01019C6F0001F0EC05F096
:1032E00001C087F1000E010101B2010E000A10E0D9
:1032F0001F0EA46F800EA56F00012EEC06F01F0EAE
:103300000101A16F800EA26F00011FEC06F0010108
:103310001C0EA16F0A0EA26F00011FEC06F01F0E1B
:103320000101A46F080EA56F00012EEC06F05750A6
:103330000508D8A4E0D01C0E01019C6F0001F0EC40
:1033400005F001C087F1010101500A0BD8A402D099
:103350000001F1D71C0E9C6F0001F0EC05F001C0DC
:1033600087F1000E010101B2010E000AD8B4C4D0E9
:103370001F0EA16F080EA26F00011FEC06F00101E5
:10338000A06B9F6B00013DEC06F001019C6B0001FE
:10339000F0EC05F001C07BF1010E01019C6F000112
:1033A000F0EC05F001C07CF1060E01019C6F0001FC
:1033B000F0EC05F001C07DF1070E01019C6F0001EA
:1033C000F0EC05F001C07EF101017D2BD8B47E2B1D
:1033D000A26B7DC1A3F1000110EC06F0010E01010A
:1033E000A26F7EC1A3F1000110EC06F0010E0101F5
:1033F000886F7F0E88C18AF1896F8C6B070E8B6F87
:103400000001AEDC0101866B86510F0866E31C0EDD
:103410009C6F0001F0EC05F001C087F1000E010186
:1034200001B2010E000A54E082AB52D01F0EA46F0D
:10343000800EA56F00012EEC06F01F0E0101A16F9A
:10344000800EA26F00011FEC06F01C0E0101A16F9F
:103450000A0EA26F00011FEC06F01F0E0101A46FFF
:10346000080EA56F00012EEC06F01C0E01019C6FEA
:103470000001F0EC05F001C087F1010101500A0BD9
:10348000D8A402D00001F1D71F0EA16F080EA26FC1
:1034900000011FEC06F00101A26B7DC1A3F1000148
:1034A00010EC06F0010E0101A26F7EC1A3F1000134
:1034B00010EC06F0010E0101886F7F0E88C18AF1C1
:1034C000896F8C6B070E8B6F00014ADC03D0010102
:1034D00004D000010101862B97D7A26B7BC1A3F119
:1034E000000110EC06F0010E0101A26F7CC1A3F1F6
:1034F000000110EC06F001010001000C010E0101B9
:103500007B6F0001E0DD01C050F10101503D03D0AF
:10351000000E016EB7D050C196F1986B976B000109
:10352000E7DD0101356B010E346F080E376F366B26
:10353000060E386F040E396F332D0BD03B6B010E26
:103540003A6FFF0E466F476F486F496F4A6F4B6F78
:1035500017D03B6B020E3A6F32C103F031C151F10B
:1035600032C152F1010EEA6E460EE96E32C1E2FF3F
:1035700031C1E1FF060E016EE6CFEEFF012EFCD752
:10358000010EEA6E3C0EE96EE26A1A0EE16E060E5C
:10359000016EE6CFEEFF012EFCD719C045F118C031
:1035A00044F117C043F116C042F1060E3125E96E11
:1035B000000E3221EA6EEFCF00F0ECCF01F0ECCF3D
:1035C00002F0ECCF03F000504219516F0150431943
:1035D000526F02504419536F03504519546F5151A3
:1035E0002014006E52512114016E53512214026EA8
:1035F00054512314036E005206E1015204E10252B9
:1036000002E1035209E027C04FF126C04EF125C068
:103610004DF124C04CF116D0060E3125E96E000E96
:103620003221EA6EEFCF00F0ECCF01F0ECCF02F0E8
:10363000ECCF03F003C04FF102C04EF101C04DF1D9
:1036400000C04CF1010E526F340E516F000160DC6E
:10365000010E01019B6F460E9A6F060E9C6F9E6BCA
:103660001C0E9D6F0001CFDD010E0101A26F340E13
:10367000A16FA46B1C0EA36F00019EDD2BDE010E5B
:10368000016E01010001000C000E56B2010E000A8D
:1036900001E02ED0010E0101326F260E316F010EB6
:1036A000346F300E336F00019DD4015201E130D0F0
:1036B0007AEC16F00101305319E1EA6AA30EE96EC3
:1036C000010EE26E260EE16E060E016EE6CFEEFFF3
:1036D000012EFCD72FC1ACF02EC1ABF02DC1AAF04A
:1036E0002CC1A9F0000114D003D0010156820001C1
:1036F000010E0101326F260E316F336B0001FEDEC9
:10370000015202E0569203D0000E016E03D000D0A9
:10371000010E016EDAEF2AF0140E54240101856FB8
:10372000000E5520866F7F518525836F805186213D
:10373000846F84511A0809E2FF0A03E18351F708F4
:1037400004E2F80E835F1B0E845BA06B100E9F6F6C
:1037500000013DEC06F0100E0101A26F83C1A3F140
:10376000000110EC06F0110E0101A26F84C1A3F15B
:10377000000110EC06F0010E0101815D006E000EEB
:103780008259036E005083270350842384511A0802
:1037900009E2FF0A03E18351F70804E2F80E835FB0
:1037A0001B0E845B120EA26F83C1A3F1000110EC0B
:1037B00006F0130E0101A26F84C1A3F1000110EC09
:1037C00006F01F0E0101A46F300EA56F00012EEC54
:1037D00006F01F0E01019C6F0001F0EC05F001C026
:1037E00085F1000E010101BA010E000AD8B402D021
:1037F0000001EFD7160E9C6F0001F0EC05F001C040
:1038000084F1170E01019C6F0001F0EC05F001C07E
:1038100083F1010183C101F084C102F00001000CB9
:10382000140E542401014B6F000E55204C6F47516C
:103830004B25496F48514C214A6F4A511A0809E2F9
:10384000FF0A03E14951F70804E2F80E495F1B0E35
:103850004A5BA06B9F6B00013DEC06F00101A26B7F
:1038600049C1A3F1000110EC06F0010E0101A26FA5
:103870004AC1A3F1000110EC06F0020E0101A26F93
:1038800049C1A3F1000110EC06F0030E0101A26F83
:103890004AC1A3F1000110EC06F0000C020E010178
:1038A0009625016E000E9721036E01C098F1996F65
:1038B000020E9625E96E000E9721EA6EECCF9BF181
:1038C000ED52EFCF9AF19BC19DF19AC19CF100019D
:1038D000E2EC16F099C1EAFF98C1E9FF02C0ECFFE3
:1038E000ED5201C0EFFF040E01019625016E000E9E
:1038F0009721036E01C098F1996F040E9625E96E29
:10390000000E9721EA6EECCF9BF1ED52EFCF9AF1CA
:103910009BC19DF19AC19CF10001E2EC16F099C1A6
:10392000EAFF98C1E9FF02C0ECFFED5201C0EFFFD2
:103930000A0E01019625016E000E9721036E01C04B
:1039400098F1996F0A0E9625E96E000E9721EA6E9E
:10395000ECCF9BF1ED52EFCF9AF19BC19DF19AC153
:103960009CF10001E2EC16F099C1EAFF98C1E9FF71
:1039700002C0ECFFED5201C0EFFF000C010E01018F
:10398000456F300E45C18AF1896F8C6B140E8B6FB9
:103990000001B0EC16F001013051F00B400803E0DB
:1039A000000E016E5CD030510F0B006E0034000130
:1039B000896F8937FC0E89170101806B7F6B826BE1
:1039C00089C081F10001A8DE02C02FF101C02EF1F3
:1039D0000101486B89C047F1000122DF01012E512E
:1039E0002F1103E0000E016E3AD0010E976F300EDA
:1039F000966F000153DF0101265127110CE026C10B
:103A0000E9FF27C1EAFF40C1EFFF41C1ECFF42C11E
:103A1000ECFF43C1ECFF060E2825E96E000E2921BC
:103A2000EA6E3CC1EFFF3DC1ECFF3EC1ECFF3FC180
:103A3000ECFF2AC1E9FF2BC1EAFF39C1EFFF2CC11E
:103A4000E9FF2DC1EAFF000189510101325D006EDD
:103A5000000E335900C0EFFFEC6E010E016E000145
:103A6000F0EF2AF00101526B516B506B4F6BD89005
:103A70004631486F4531476F44C14AF143C149F16E
:103A800048C103F04751D8B448074707031017E06F
:103A90004AC103F049C100F0020E4927D8B04A2BB1
:103AA00000C0E9FF03C0EAFFECCF03F0ED52EF5096
:103AB0004F2703505023000E51235223E1D7455185
:103AC000010B006E036A005003100AE049C1E9FFD0
:103AD0004AC1EAFFEF504F27000E502351235223D3
:103AE00052C14EF151C14DF150C14CF14FC14BF19A
:103AF0004EC148F14DC147F1475302E148531FE021
:103B0000526B516B566B556B50C154F14FC153F111
:103B1000026A036A47514F254F6F48515021506F39
:103B200002505521516F03505621526F52C14EF130
:103B300051C14DF150C14CF14FC14BF1D9D750C1DA
:103B400003F0031E4F51FF0A016E03C002F0000193
:103B5000D8EF1FF0895101014325456F000E442124
:103B6000466F486F45C147F100015ADE000C95923F
:103B70008C923A0E0101A76F0001E8EC05F00101FB
:103B8000A76B0001E8EC05F001C047F195928C822B
:103B9000010147C101F00001000C0101435307E19D
:103BA000445305E1FF0E016E026EA1D017D0432DE4
:103BB00015D0445313E10001DADF0101486B01C065
:103BC00047F101C003F0000E006A0006001AFF0E64
:103BD000031A00C001F003C002F089D0A06B9F6BF4
:103BE00000013DEC06F001019C6B0001F0EC05F0DA
:103BF00001C045F1010E01019C6F0001F0EC05F0E0
:103C000001C046F1100E0101A26F45C1A3F10001F0
:103C100010EC06F0110E0101A26F46C1A3F10001E4
:103C200010EC06F0010146511B081BE303E145516E
:103C3000F70817E3010E435D006E000E4459036E52
:103C4000005045270350462346511A0809E2FF0A4F
:103C500003E14551F70804E2F80E455F1B0E465B91
:103C60000AD0010E435D006E000E4459036E0050F1
:103C7000452703504623120EA26F45C1A3F1000150
:103C800010EC06F0130E0101A26F46C1A3F1000172
:103C900010EC06F01F0E0101A46F300EA56F00019D
:103CA0002EEC06F01F0E01019C6F0001F0EC05F0F8
:103CB00001C047F1000E010101BA010E000AD8B49B
:103CC00002D00001EFD7160E9C6F0001F0EC05F05A
:103CD00001C045F1170E01019C6F0001F0EC05F0E9
:103CE00001C046F1010145C101F046C102F00001E9
:103CF000FCEF1FF0FF0E01014A6F4C6B590E4B6F2A
:103D0000496B49510108D8A089D00C0E4B25E96EAA
:103D1000000E4C21EA6EECCF4EF1ED52EFCF4DF19B
:103D2000020E4325E96E000E4421EA6EECCF03F04B
:103D3000ED52EF504D5DD8A46BD003504E5D68E15D
:103D40000A0E4B25E96E000E4C21EA6EECCF4EF1C7
:103D5000ED52EFCF4DF143C1E9FF44C1EAFFECCF93
:103D600003F0ED52EF504D5D51E103504E5D4EE1D9
:103D7000100E4B25E96E000E4C21EA6EECCF4EF191
:103D8000ED52EFCF4DF14D5341E14E533FE1060E61
:103D90004B25E96E000E4C21EA6EEFCF4DF1ECCFD2
:103DA0004EF1ECCF4FF1ECCF50F1060E4525E96E08
:103DB000000E4621EA6EEFCF00F0ECCF01F0ECCF21
:103DC00002F0ECCF03F000504D5D09E101504E5D73
:103DD00006E102504F5D03E10350505D14E047C11E
:103DE000E9FF48C1EAFFEFCF4DF1ECCF4EF1ECCF48
:103DF0004FF1ECCF50F14D3D09D04E3D07D04F3D36
:103E000005D0503D03D049C101F043D049C14AF12A
:103E1000160E4B27D8B04C2B492B73D74A3D01D0F7
:103E200036D04A51160DF350036A590F016E000E39
:103E3000032201C04BF103C04CF14CC103F04BC154
:103E40004DF14CC14EF14CC1EAFF4BC1E9FF46C1F7
:103E5000E2FF45C1E1FF0A0E016EE6CFEEFF012E43
:103E6000FCD70A0E4B25016E000E4C2143C1E9FF21
:103E700044C1EAFFECCF03F0ED52EFCF4FF1EA6E11
:103E800001C0E9FF03C0ECFFED524FC1EFFF4AC193
:103E900001F000011CEF20F0010E01018A6F2C0ED1
:103EA000896F8C6B080E8B6F0001B0EC16F02DC182
:103EB0009DF12CC19CF1E2EC16F002C02DF101C085
:103EC0002CF12FC19DF12EC19CF1E2EC16F002C045
:103ED0002FF101C02EF131C19DF130C19CF1E2EC16
:103EE00016F0080E0101015C306F000E0258316FB0
:103EF00032513311D8B492D033C19DF132C19CF10B
:103F00000001E2EC16F002C033F101C032F1060EFE
:103F100001012625E96E000E2721EA6EEFCF00F0A1
:103F2000ECCF01F0ECCF02F0ECCF03F003C038F19E
:103F300002C037F101C036F100C035F128C1E9FFF8
:103F400029C1EAFFEFCF39F1010E2825E96E000EF5
:103F50002921EA6EEFCF3AF1020E2825E96E000E14
:103F60002921EA6EEFCF3BF1030E2825E96E000E02
:103F70002921EA6EEFCF3CF13D6B110E3E6F2BC154
:103F800040F12AC13FF140C19DF13FC19CF10001C8
:103F9000E2EC16F002C040F101C03FF1010E010158
:103FA000446F350E436F466B0C0E456F00015AD5BA
:103FB00001C041F10101411F02C042F1421F446BA7
:103FC000060E436F0001C6DD41C1A0F1CDEC18F033
:103FD0000101446B070E436F0001BCDD42C1A0F13B
:103FE000CDEC18F00101446B436B0001B3DD2BC134
:103FF00044F12AC143F1D1D502C042F101C041F1DF
:1040000001013251415D03E13351425D07E000019E
:104010007AEC16F0010E016E42D00101010E446FE0
:104020002C0E436F27C146F126C145F129C148F145
:1040300028C147F100015ED601C034F10101343DD1
:1040400005D000017AEC16F028D001013451160D8C
:10405000F350446B436F100E4325016E000E442154
:10406000036E0150590FE96E000E0320EA6E31C154
:10407000ECFFED5230C1EFFF3451160DF350446B9D
:10408000436F150E4327000E4423590E4325E96E56
:10409000000E4421EA6EEF800001010E016E1CEF5C
:1040A0002BF0040E01017E25016E000E7F21036EB0
:1040B00001C080F1816F040E7E25E96E000E7F2124
:1040C000EA6EECCF83F1ED52EFCF82F183C19DF127
:1040D00082C19CF10001E2EC16F081C1EAFF80C1CF
:1040E000E9FF02C0ECFFED5201C0EFFF060E010137
:1040F0007E25016E000E7F21036E01C080F1816F6D
:10410000060E7E25E96E000E7F21EA6EECCF83F16C
:10411000ED52EFCF82F183C19DF182C19CF100018C
:10412000E2EC16F081C1EAFF80C1E9FF02C0ECFFBA
:10413000ED5201C0EFFF020E01017E25016E000E5F
:104140007F21036E01C080F1816F020E7E25E96E32
:10415000000E7F21EA6EECCF83F1ED52EFCF82F1BA
:1041600083C19DF182C19CF10001E2EC16F081C196
:10417000EAFF80C1E9FF02C0ECFFED5201C0EFFF92
:10418000000C010E01017F6F320E7FC18AF1896F31
:104190008C6B080E8B6F0001B0EC16F001017D6B8B
:1041A0007C6B2DC103F02CC1E9FF2DC1EAFFEFCFDD
:1041B0007EF1806B140E7F6F826B7EC181F10001F6
:1041C0008CEC1BF002C07BF101C07AF101012CC123
:1041D000E9FF2DC1EAFF080EEF5CEF6E2DC103F081
:1041E0002CC1E9FF2DC1EAFFEFCF7EF12BC18AF18F
:1041F0002AC189F18C6B7EC18BF10001B0EC16F005
:10420000010E01017F6F320E7E6F00014ADF010156
:1042100028C1E9FF29C1EAFF32C1EFFF2EC1E9FF42
:104220002FC1EAFF37C1ECFFED5236C1EFFF30C1BD
:10423000E9FF31C1EAFF39C1ECFFED5238C1EFFFB0
:104240007C517A5D03E17D517B5D02E0000E00D080
:104250007C517A5D03E17D517B5D02E0000E01D06F
:10426000010E016E00013EEF2BF01F0E01019C6F4D
:104270000001F0EC05F001C047F1000E010101B6AC
:10428000010E000A02E0000E01D0010E016E00D006
:104290000001000C060E010196259C6F1C0E972153
:1042A0009D6F010E9C259A6F000E9D219B6FA06B48
:1042B000100E9F6F00013DEC06F0100E0101A26F81
:1042C0009AC1A3F1000110EC06F0110E0101A26FDA
:1042D0009BC1A3F1000110EC06F0010E0101985DF5
:1042E000006E000E9959036E00509A2703509B23CD
:1042F000120EA26F9AC1A3F1000110EC06F0130E8A
:104300000101A26F9BC1A3F1000110EC06F01F0E8A
:104310000101A46F300EA56F00012EEC06F01F0EF8
:1043200001019C6F0001F0EC05F001C09CF1000E52
:10433000010101BA010E000AD8B402D00001EFD782
:10434000160E9C6F0001F0EC05F001C09BF1170EFA
:1043500001019C6F0001F0EC05F001C09AF1010130
:104360009AC101F09BC102F00001000C140E896F8C
:10437000450E0101826F836B140E8025846F000E41
:104380008121856F0001872BD8B4882B88C087F1E5
:1043900087C086F10101896B886B640E8A6F7FC1CB
:1043A0008BF18D6B8C6B19C091F118C090F117C017
:1043B0008FF116C08EF1060E7D25E96E000E7E216E
:1043C000EA6EEFCF00F0ECCF01F0ECCF02F0ECCFD3
:1043D00003F003C095F102C094F101C093F100C055
:1043E00092F1010E976F820E966F00014EEC1CF059
:1043F00001017DC101F07EC103F07DC196F17EC156
:1044000097F1140E8025986F000E8121996F7EC15F
:104410009BF17DC19AF19C6B9E6F98C19DF100014B
:1044200003EC19F0010E0101976F820E97C1A2F102
:10443000A16FA46B140EA36F0001DCEC18F0010156
:10444000976B966B996B140E986F000123DF02C077
:104450008DF101C08CF14DC096F10101986B0A0EEF
:10446000976F000178EC18F0010E0101976F8C0E28
:1044700097C1A2F1A16FA46B020EA36F0001DCEC47
:1044800018F04DC096F10101986B140E976F000162
:1044900078EC18F0000E016E026E000C010E0101A6
:1044A0007B6F000163EC18F001C07AF101017A3DE5
:1044B00001D078D07AC196F1986B140E976F0001F5
:1044C00078EC18F0036A01012B51080F786F000E89
:1044D0000320796F316B28C130F1336B326B2DC102
:1044E00035F12CC134F12FC137F12EC136F1010E57
:1044F000EA6E380EE96E2AC1E2FF29C1E1FF2B51B5
:10450000016E04E0E6CFEEFF012EFCD7010E7F6FB7
:10451000300E7E6F0001C5DD080E01012B257C6B7E
:104520007B6F27C17EF126C17DF1010E7F6F7CC1BB
:1045300081F17BC180F1000119DF010E01017C6F67
:10454000300E7CC1A2F1A16F79C1A4F178C1A3F1B1
:104550000001DCEC18F00101976B140E966F79C125
:1045600099F178C198F1000195DE02C033F101C0E4
:1045700032F17AC196F10101986B160E976F000126
:1045800078EC18F0010E01017C6F320E7CC1A2F1B3
:10459000A16FA46B020EA36F0001DCEC18F06AECB3
:1045A00019F0010100016AEF2BF001013B6B590E7C
:1045B0003A6F396B3951010857E30C0E3A25E96E11
:1045C000000E3B21EA6EECCF3DF1ED52EFCF3CF116
:1045D0003C5344E13D5342E10C0E3A25E96E000E96
:1045E0003B21EA6E34C1ECFFED5233C1EFFF355190
:1045F000361112E03AC13CF13BC13DF13BC1EAFF4B
:104600003AC1E9FF36C1E2FF35C1E1FF0A0E016E92
:10461000E6CFEEFF012EFCD70A0E3A25E96E000E1A
:104620003B21EA6E38C1ECFFED5237C1EFFF0E0EB1
:104630003A25E96E000E3B21EA6EEC6AED52EF6A14
:10464000100E3A25E96E000E3B21EA6EEC6AED523F
:10465000EF6A39C158F039C101F008D0160E3A2777
:10466000D8B03B2B392BA6D7FF0E016E0001000CF2
:1046700033C158F0010E0101466F0001F6DD015013
:10468000000C010E0101466F0001EFDD0152F9E05F
:104690005850160DF350036A590F016E000E032295
:1046A00001C044F1010103C045F10C0E4425E96E3F
:1046B000000E4521EA6EECCF47F1ED52EFCF46F107
:1046C00047C19DF146C19CF10001E2EC16F002C029
:1046D0003DF101C03CF10A0E01014425E96E000ED6
:1046E0004521EA6EECCF47F1ED52EFCF46F147C1DD
:1046F0009DF146C19CF10001E2EC16F002C03FF1D1
:1047000001C03EF10E0E01014425E96E000E452167
:10471000EA6EECCF47F1ED52EFCF46F1080E462599
:10472000406F000E4721416F436B426B120E4425D0
:10473000E96E000E4521EA6EEFCF46F146C196F1D3
:10474000986B140E976F000178EC18F0010144C1CA
:1047500001F045C103F044C146F145C147F145C1EF
:104760007EF144C17DF1110E7F6F41C181F140C1E5
:1047700080F10001FBDD41C19DF140C19CF1E2EC03
:1047800016F002C041F101C040F1010E0101476F76
:104790003C0E47C1A2F1A16FA46B080EA36F0001EC
:1047A000DCEC18F06AEC19F0120E01014425E96EF8
:1047B000000E4521EA6EFF0EEF6E0E0E4425E96EE7
:1047C000000E4521EA6EEC6AED52EF6A0001000C22
:1047D0005850160DF350036A590F016E000E032254
:1047E00001C036F1010103C037F10E0E3625E96E26
:1047F000000E3721EA6EECCF03F0ED52EFCF3AF125
:1048000003C03BF13A533CE13B533AE1120E3625EB
:10481000016E000E3721036E01C03CF13D6F010EA9
:104820007B6F000163EC18F03DC1EAFF3CC1E9FF7A
:1048300001C0EFFF120E01013625E96E000E37218F
:10484000EA6EEF3C03D0000E016E5DD0120E3625ED
:10485000E96E000E3721EA6EEFCF3CF13CC196F1D4
:10486000986B1C0E976F000178EC18F0130E010185
:104870003625E96E000E3721EA6EEC6AED52EF6ADA
:10488000130E3625E96E000E3721EA6EECCF03F0E9
:10489000ED52EFCF38F103C039F135C1A0F100017D
:1048A000CDEC18F001013B51395D07E303E13A51CA
:1048B000385D03E33A2BD8B43B2B382BD8B4392BD3
:1048C000130E3625E96E000E3721EA6E39C1ECFF72
:1048D000ED5238C1EFFF0E0E3625E96E000E37217E
:1048E000EA6E3BC1ECFFED523AC1EFFF3B510208CB
:1048F00008E2FF0A03E13A51E30803E20001C1DEE6
:104900000101010E016E0001000C010E0101356F65
:1049100000015EDF010E0101356F000159DF060E57
:104920000101356F000154DF0101356B000150DFDB
:10493000120E0101356F00014BDF230E0101356FAF
:10494000000146DF340E0101356F000141DF560ED4
:104950000101356F00013CDF0101356B000138DFDB
:104960000101356B000134DF800E0101356F00015C
:104970002FDF0101356B00012BDF0101356B0001D9
:1049800027DF0101356B000123DF0101356B0001D9
:104990001FDF0101356B00011BDF0101346B345156
:1049A0000B0806E3356B000113DF0101342BF7D749
:1049B0001AC035F100010CDF1BC035F109DF1CC046
:1049C00035F106DF1DC035F103DF1EC035F100DF14
:1049D0001FC035F1FDDE0101346B3451C90806E317
:1049E000356B0001F5DE0101342BF7D7630E356F0F
:1049F0000001EEDE820E0101356F0001E9DE530E8B
:104A00000101356F0001E4DE630E0101356F000125
:104A1000DFDE350E0101356F0001DADE010E010126
:104A2000356F0001D5DE33C135F1D2DE0101332D02
:104A300003D0000186930101332D01D023D0000162
:104A4000935309E1945307E1955305E19653D8A494
:104A500002D0010117D0360E0101356F0001B8DE1A
:104A6000040E0101356F0001B3DE8EC035F1B0DEFA
:104A70008DC035F1ADDE8CC035F1AADE8BC035F1CD
:104A8000A7DE0101370E356F0001A2DE040E010121
:104A9000356F00019DDE010E0101356F000198DECA
:104AA000030E0101356F000193DE060E0101356F23
:104AB00000018EDE0C0E0101356F000189DE01015F
:104AC0003351030816E1320E356F000181DE040E0A
:104AD0000101356F00017CDE93C035F179DE94C0B1
:104AE00035F176DE95C035F173DE96C035F170DEB6
:104AF0000101FF0E356F00016BDEC3DD000C33C119
:104B000058F05850160DF3500101356B346F100EEC
:104B10003425016E000E3521036E0150590FE96EE8
:104B2000000E0320EA6EECCF35F1ED52EFCF34F1F9
:104B3000345304E1355302E1000E01D0010E016E41
:104B40000001000C5850160DF35001013F6B3E6FF1
:104B5000100E3E25016E000E3F21036E0150590FCD
:104B6000E96E000E0320EA6EECCF3FF1ED52EFCF7D
:104B70003EF13E5305E13F5303E1000E016E6DD05F
:104B80005850160DF3503F6B3E6F150E3E27000E2A
:104B90003F23590E3E25E96E000E3F21EA6EEFA03D
:104BA00016D05850160DF3503F6B3E6F150E3E2732
:104BB000000E3F23590E3E25E96E000E3F21EA6E9E
:104BC000EF90446B080E436F0001AAEC1DF03DC14D
:104BD00003F03CC13EF13DC13FF10001B7EC1DF0D7
:104BE0003FC1EAFF3EC1E9FF01C0EFFF5850160D7B
:104BF000F35001013F6B3E6F100E3E25016E000E1B
:104C00003F21036E0150590FE96E000E0320EA6E3A
:104C1000FF0EEF2602E2EE52ED065850160DF3504D
:104C20003F6B3E6F100E3E25016E000E3F21036E5E
:104C30000150590FE96E000E0320EA6EECCF3FF1F0
:104C4000ED52EFCF3EF13E5306E13F5304E1000148
:104C50007AEC16F00101010E016E0001000C5850B3
:104C6000160DF35001013D6B3C6F100E3C25016E9B
:104C7000000E3D21036E0150590FE96E000E032016
:104C8000EA6EEF5202E1EC5204E000017AEC16F019
:104C900001015850160DF3503D6B3C6F100E3C2532
:104CA000016E000E3D21036E0150590FE96E000E9A
:104CB0000320EA6EEC6AED52EF6A0001000C01017C
:104CC000366B010E3D6F330E3C6F00013BDF01017F
:104CD00033510208D8A4CBD1346B34510E0809E308
:104CE000010E3D6F330E3C6F00012CDF0101342BB0
:104CF000F4D7000186A310D00101346B34510308AE
:104D000009E3010E3D6F330E3C6F00011BDF010113
:104D1000342BF4D71BD0000101013D6B930E3C6F87
:104D2000000110DF01013D6B940E3C6F00010ADFB2
:104D300001013D6B950E3C6F000104DF01013D6BED
:104D4000960E3C6F0001FEDE9F810101346B3451F1
:104D5000070809E3010E3D6F330E3C6F0001F2DEE0
:104D60000101342BF4D7346B3451050819E3010EDB
:104D70003D6F330E3C6F0001E5DE036A01013451E3
:104D8000040F016E000E03220150160FE96E000E93
:104D90000320EA6EEF50335D01E093D1342BE4D76A
:104DA000346B3451CD0809E3010E3D6F330E3C6F77
:104DB0000001C8DE0101342BF4D73791010E3D6F9D
:104DC000330E3C6F0001BEDE015204E10101378168
:104DD0004ED1000101013351350A00010FE0340AC0
:104DE0002DE0020AD8B466D0350AD8B4ADD0C90ACD
:104DF000D8B4D5D0CC0AD8B4D6D023D1010E010175
:104E00003D6F330E3C6F00019DDE0101332D13D049
:104E1000010E3D6F360E3C6F000194DE86A309D073
:104E2000010136510208D8B402D0000102D049D1A4
:104E3000000103D0010145D1000116D1010E01018D
:104E40003D6F330E3C6F00017DDE010133510408DC
:104E50002EE1000186A310D00101346B3451030808
:104E600009E3010E3D6F330E3C6F00016BDE010163
:104E7000342BF4D71BD0000101013D6B9B0E3C6F1E
:104E8000000160DE01013D6B9C0E3C6F00015ADEAB
:104E900001013D6B9D0E3C6F000154DE01013D6B35
:104EA0009E0E3C6F00014EDE9F85010101D009D1AD
:104EB0000001DAD0010E01013D6F350E3C6F00019B
:104EC00041DE0101355103082EE2000186A310D016
:104ED0000101346B3451030809E3010E3D6F330EB9
:104EE0003C6F00012FDE0101342BF4D71BD00001F1
:104EF00001013D6B970E3C6F000124DE01013D6B0B
:104F0000980E3C6F00011EDE01013D6B990E3C6F57
:104F1000000118DE01013D6B9A0E3C6F000112DEAC
:104F20009F83010101D0CDD0040E355F3551350787
:104F3000000A08E0010E3D6F330E3C6F000102DEF7
:104F40000101F4D7000190D0010E01013D6F330E35
:104F50003C6F0001F7DD0101335104081DE1010E32
:104F60003D6F3B0E3C6F0001EDDD010E01013D6F19
:104F70003A0E3C6F0001E6DD010E01013D6F390E76
:104F80003C6F0001DFDD010E01013D6F380E3C6F0B
:104F90000001D8DD03D0010194D0000165D00101EA
:104FA0003781000161D0010E01013D6F330E3C6F6E
:104FB0000001C8DD01013351040840E1000186A36E
:104FC00010D00101346B3451030809E3010E3D6F29
:104FD000330E3C6F0001B6DD0101342BF4D72DD028
:104FE000000101013D6B920E3C6F0001ABDD010140
:104FF0003D6B910E3C6F0001A5DD01013D6B900EF4
:105000003C6F00019FDD01013D6B8F0E3C6F000185
:1050100099DD92530AE1915308E1905106080CE2A0
:10502000FF0A03E18F51080807E2080E8F5F070EA1
:10503000905B000E915B925B010101D042D00001B8
:1050400013D0010E01013D6F350E3C6F00017ADD7A
:10505000010135513507000A08E0010E3D6F330E9E
:105060003C6F00016FDDF4D7010137A1A7D636519F
:1050700002080CE13BC18EF03AC18DF039C18CF0D1
:1050800038C18BF00001868317D00101385100012F
:105090008B5D0FE10101395100018C5D0AE10101D5
:1050A0003A5100018D5D05E101013B5100018E5D2A
:1050B00003E00101366B0001D2DD010136C101F0D0
:1050C00005D00001CCDD000E016E01010001000CD5
:1050D0008551F80FD8B013D2080F82EF2AF0966BE3
:1050E000956B946B936BFF0E0101266F276F286FF2
:1050F000296F2A6F2B6F2F6F2E6F2D6F2C6F346BD4
:10510000440E336F010E366F260E356F386B430E2B
:10511000376F0001D5EC22F001C08AF098EC0BF05B
:1051200002C0A2F001C0A1F0020E856F98EC0BF056
:1051300002C034F101C033F1010102500001A25D4F
:1051400009E30AE1A1510101335DD8B002D00001A9
:1051500003D00001000E01D0010E036A03101BE012
:10516000FF0ED880A1550101336FFF0E0001A2553B
:105170000101346F000198EC0BF00150010133275D
:1051800002503423010E3325016E000E3421036ECC
:10519000015011D0000198EC0BF002C034F101C0B5
:1051A00033F1A1510101015C006E0001A251010126
:1051B0000258036E0050010803E2030E0001856FE0
:1051C00000019DD1926B916B906B3C0E8F6F86A10D
:1051D00003D0050E856F15D08AC033F138EC23F06B
:1051E00001520FE0010E0101336F000185EC24F044
:1051F0009F6B98EC0BF002C0A2F001C0A1F0040E6E
:10520000856F7DD198EC0BF002C034F101C033F111
:10521000010102500001A25D09E30AE1A15101016F
:10522000335DD8B002D0000103D00001000E01D0E0
:10523000010E036A03101BE0FF0ED880A155010187
:10524000336FFF0E0001A2550101346F000198EC8D
:105250000BF001500101332702503423010E332596
:10526000016E000E3421036E015011D0000198EC44
:105270000BF002C034F101C033F1A1510101015C16
:10528000006E0001A25101010258036E0050130884
:1052900003E2030E0001856F8AC033F100012FDCA9
:1052A000015209E00CDD0150020803E1050E856F93
:1052B00001D025D101D023D18AC033F138EC23F0BD
:1052C00001520EE0030E0101336F000185EC24F062
:1052D00098EC0BF002C0A2F001C0A1F0060E856FA1
:1052E0000ED18AC033F10BDC015243E0E8DC01C08F
:1052F00030F101013051060806E1000199EC08F097
:10530000FED034D001013051050831E18AC033F1BB
:1053100000014BEC08F0FF0E8A6F98EC0BF002C016
:10532000A2F001C0A1F0070E856F9FA108D096C022
:1053300019F095C018F094C017F093C016F09FA50F
:1053400008D09EC023F09DC022F09CC021F09BC0DD
:1053500020F09FA308D09AC027F099C026F098C0EB
:1053600025F097C024F08681A02BC9D001014BD035
:10537000000198EC0BF002C034F101C033F10101DF
:1053800002500001A25D09E30AE1A1510101335D70
:10539000D8B002D0000103D00001000E01D0010EF0
:1053A000036A03101BE0FF0ED880A1550101336F83
:1053B000FF0E0001A2550101346F000198EC0BF0C3
:1053C00001500101332702503423010E3325016EB1
:1053D000000E3421036E015011D0000198EC0BF047
:1053E00002C034F101C033F1A1510101015C006E32
:1053F0000001A25101010258036E0050130803E29C
:10540000030E0001856F00017AD098EC0BF002C00A
:1054100034F101C033F1010102500001A25D09E342
:105420000AE1A1510101335DD8B002D0000103D0DF
:105430000001000E01D0010E036A03101BE0FF0EF5
:10544000D880A1550101336FFF0E0001A255010163
:10545000346F000198EC0BF001500101332702502A
:105460003423010E3325016E000E3421036E0150EA
:1054700011D0000198EC0BF002C034F101C033F1FF
:10548000A1510101015C006E0001A251010102580D
:10549000036E0050316F03C032F1325303E13151DA
:1054A00009082DE2FF0E00018F27D8A09027D8A071
:1054B0009127D8A092270A0E0101315F000E325BBE
:1054C00000018F5308E1905306E1915304E1925398
:1054D00002E1010E856F01013253E4E13151090807
:1054E000E1E3000198EC0BF001013151015C000196
:1054F000A16F0101325102580001A26F01010001A8
:1055000071EF2BF0F2CF0DF0F29EE824F76AF73638
:10551000290FF66E550EF7220A00F550FA6E0800B4
:10552000F5500DBEF28EF96EDE50E6502C51C4518E
:105530000452B852E2520A5401012591259100010A
:10554000AD51F80FD8B0C8D0080F76EF2BF001019D
:10555000276BAE0E266F010E296F240E286F0001F7
:10556000EDEF16F001520FE1855108080BE0A5ECB4
:105570000BF0015207E1196A186A176A166A2C8241
:1055800099EC08F0A9D001012581245305E1020E10
:105590000001AD6F0CD001012451060805E1050E94
:1055A0000001AD6F04D0010100017AEC16F094D037
:1055B00044EF1BF0015201E0AD6B8ED0010E0101F2
:1055C000276F200E266F296BAE0E286F010E2B6FF2
:1055D000240E2A6F2D6BB80E2C6F0001BEEF1CF04D
:1055E000015217E001012581242D05D0030E000191
:1055F000AD6F0ED001012451110805E1070E000125
:10560000AD6F06D00101259100017AEC16F0AD6B6B
:1056100003D07AEC16F0AD6B5FD00101276BAE0EB4
:10562000266F010E296F200E286FB9C02BF1B8C06C
:105630002AF100014CEF1FF0015201E0AD6B4CD09C
:10564000AD6BB95325E1B851480822E30101276B3E
:10565000B80E266F010E296F240E286F2B6BBA0E21
:105660002A6F27C12DF126C12CF12F6BFA0E2E6F58
:10567000316BFC0E306F0001C1EF20F0015208E0E9
:1056800001012451080805E12581040E0001AD6FD8
:10569000010100017AEC16F01FD0010E0101466FE6
:1056A000000135EC21F0015216E00101276BAE0E2E
:1056B000266F286B2A6BBA0E296FB8C02BF1FBC07E
:1056C0002DF1FAC02CF1FDC02FF1FCC02EF100012C
:1056D0004EEF22F0AD6B00D0010125B12FD70001B4
:1056E000F7D486A101D02C9249EF2EF0F2CF0DF025
:1056F000F29EE824F76AF736110FF66E570EF7227E
:105700000A00F550FA6E0800F5500DBEF28EF96EE3
:105710004E554E55BC5540569A56B055D8561A5609
:10572000010122C1E9FF23C1EAFFEFCF00F0ECCF76
:1057300001F0ECCF02F0ECCF03F003C02DF102C07A
:105740002CF101C02BF100C02AF1010E326F240EA2
:10575000316F010E336F00017EEC1AF022EF2CF056
:10576000010122C1E9FF23C1EAFFEFCF00F0ECCF36
:1057700001F0ECCF02F0ECCF03F000500001A95D86
:1057800009E10150AA5D06E10250AB5D03E103505F
:10579000AC5D0CE02450A95D1DE12550AA5D1AE125
:1057A0002650AB5D17E12750AC5D14E125C103F035
:1057B000010124C1E9FF25C1EAFFE26AA30EE16EFF
:1057C000060E016EE6CFEEFF012EFCD7010E016E34
:1057D00004D00001000E016E0101000136EF2CF033
:1057E00098EC0BF002C021F101C020F10101005141
:1057F000000A00010CE0010A2EE0030AD8B469D0C7
:10580000010AD8B4ADD0070AD8B402D100D0020E34
:1058100001012D6F190E2C6F010E2F6F0E0E2E6FC2
:10582000000194EC05F0010E0101466F000135EC1A
:1058300021F001520FE0010E0101236F0E0E226FC5
:1058400000016ED721C113F120C112F1010E010137
:10585000006F00010AD1010E0101236F0E0E226FAD
:10586000010E256F080E246F00017AD7015204E063
:10587000020E0101006F2BD001012151135D04E3E1
:1058800005E11251205D02E3000E01D0010E036A12
:10589000031013E0FF0ED8801255226FFF0E135530
:1058A000236F2051222721512323010E2225016E2F
:1058B000000E2321036E015007D01251205D006EAF
:1058C00013512159036E0050140801E2006B0001CE
:1058D000CCD0020E0101276F1D0E266F000115ECC2
:1058E0000AF002C023F101C022F1020E0101276F6C
:1058F0001F0E266F000115EC0AF002C003F00150E4
:105900000101222702502323020E276F1D0E266F4E
:10591000000115EC0AF002C025F101C024F123C1F9
:1059200034F122C133F1010E0101366F080E356FDB
:1059300002C038F101C037F10001D5EC22F001C0FE
:1059400007F121C113F120C112F10101073D01D07E
:1059500003D0030E006F02D0040E006F000185D04B
:1059600001012151135D04E305E11251205D02E3C1
:10597000000E01D0010E036A031013E0FF0ED88061
:105980001255226FFF0E1355236F205122272151EC
:105990002323010E2225016E000E2321036E0150E8
:1059A00007D01251205D006E13512159036E005033
:1059B000020820E207C133F1000138EC23F0015264
:1059C00019E021C113F120C112F1C284C2B4FED783
:1059D000C4CF22F1C4CF35F10001E8EC23F0000E72
:1059E00080B8010E0101226F356F0001E8EC23F051
:1059F00041EC23F00001A5EC0BF0015208E107C1D6
:105A000033F14BEC08F0040E0101006F00012DD0C2
:105A100001012151135D04E305E11251205D02E310
:105A2000000E01D0010E036A031013E0FF0ED880B0
:105A30001255226FFF0E1355236F2051222721513B
:105A40002323010E2225016E000E2321036E015037
:105A500007D01251205D006E13512159036E005082
:105A6000310801E2006B000100D04AEF2EF098EC03
:105A70000BF002C021F101C020F10101013D1BD05A
:105A8000020E276F1F0E266F000115EC0AF002C0F0
:105A900023F101C022F102C034F101C033F1010150
:105AA000366B356B386BFF0E376F0001D5EC22F08B
:105AB00001C001F11CD001C133F100017FEC25F0E0
:105AC000015215E0010E01013D6F020E3C6F000115
:105AD000A2EC25F0010E01013D6F030E3C6F0001A9
