:1000000024EF00F0486921210D0A00000900F55293
:1000100005E0F5509EA8FED7AD6EF8D764EF00F06E
:10002000EA6A050EE96EEF500DE0060E016E006AF9
:10003000002EFED7012EFBD77B0E006E002EFED7C2
:10004000EF2EF3D767EF00F0F86AD09EEA6AE96A0C
:10005000B886080EAF6E020EB06EA60EAC6E900E95
:10006000AB6EC150C00B0F09C16E070EB46EC1500C
:10007000C00B0F09C16EC050C00BC06EC09EC280C5
:100080009698C69A949A94889496010EC66E000E1D
:10009000C76ED190800ED56ECD6A000ECA6E000E6E
:1000A000CB6E070EB46E9250926E100E006E002E44
:1000B000FED70000B450A19CB56A95908C80040EC8
:1000C000F66E000EF76EA2D7FA0E056EA9D7F5D719
:0200D00003002B
:020000040030CA
:0E00000000C0190E008781000FC00FE00F40F6
:00000001FF
;PIC18F4620
;CRC=F5BF  CREATED="12-Á.¤.-10 14:13"
